{
  "abi": [
    {
      "type": "constructor",
      "inputs": [],
      "stateMutability": "nonpayable"
    },
    {
      "type": "function",
      "name": "accessEvidence",
      "inputs": [
        {
          "name": "caseId",
          "type": "string",
          "internalType": "string"
        },
        {
          "name": "index",
          "type": "uint256",
          "internalType": "uint256"
        },
        {
          "name": "keyHash",
          "type": "bytes",
          "internalType": "bytes"
        }
      ],
      "outputs": [
        {
          "name": "",
          "type": "string",
          "internalType": "string"
        }
      ],
      "stateMutability": "nonpayable"
    },
    {
      "type": "function",
      "name": "assignCaseRole",
      "inputs": [
        {
          "name": "caseId",
          "type": "string",
          "internalType": "string"
        },
        {
          "name": "user",
          "type": "address",
          "internalType": "address"
        },
        {
          "name": "role",
          "type": "uint8",
          "internalType": "enum ForensicChain.Role"
        }
      ],
      "outputs": [],
      "stateMutability": "nonpayable"
    },
    {
      "type": "function",
      "name": "caseAuditTrail",
      "inputs": [
        {
          "name": "",
          "type": "string",
          "internalType": "string"
        },
        {
          "name": "",
          "type": "uint256",
          "internalType": "uint256"
        }
      ],
      "outputs": [
        {
          "name": "",
          "type": "address",
          "internalType": "address"
        }
      ],
      "stateMutability": "view"
    },
    {
      "type": "function",
      "name": "caseEvidenceMapping",
      "inputs": [
        {
          "name": "",
          "type": "string",
          "internalType": "string"
        },
        {
          "name": "",
          "type": "uint256",
          "internalType": "uint256"
        }
      ],
      "outputs": [
        {
          "name": "evidenceId",
          "type": "string",
          "internalType": "string"
        },
        {
          "name": "cidEncrypted",
          "type": "string",
          "internalType": "string"
        },
        {
          "name": "hashEncrypted",
          "type": "string",
          "internalType": "string"
        },
        {
          "name": "hashOriginal",
          "type": "string",
          "internalType": "string"
        },
        {
          "name": "encryptionKeyHash",
          "type": "bytes",
          "internalType": "bytes"
        },
        {
          "name": "evidenceType",
          "type": "uint8",
          "internalType": "enum ForensicChain.EvidenceType"
        },
        {
          "name": "submittedBy",
          "type": "address",
          "internalType": "address"
        },
        {
          "name": "confirmed",
          "type": "bool",
          "internalType": "bool"
        },
        {
          "name": "submittedAt",
          "type": "uint256",
          "internalType": "uint256"
        }
      ],
      "stateMutability": "view"
    },
    {
      "type": "function",
      "name": "caseRoles",
      "inputs": [
        {
          "name": "",
          "type": "string",
          "internalType": "string"
        },
        {
          "name": "",
          "type": "address",
          "internalType": "address"
        }
      ],
      "outputs": [
        {
          "name": "",
          "type": "uint8",
          "internalType": "enum ForensicChain.Role"
        }
      ],
      "stateMutability": "view"
    },
    {
      "type": "function",
      "name": "cases",
      "inputs": [
        {
          "name": "",
          "type": "string",
          "internalType": "string"
        }
      ],
      "outputs": [
        {
          "name": "caseId",
          "type": "string",
          "internalType": "string"
        },
        {
          "name": "title",
          "type": "string",
          "internalType": "string"
        },
        {
          "name": "description",
          "type": "string",
          "internalType": "string"
        },
        {
          "name": "createdBy",
          "type": "address",
          "internalType": "address"
        },
        {
          "name": "seal",
          "type": "bool",
          "internalType": "bool"
        },
        {
          "name": "open",
          "type": "bool",
          "internalType": "bool"
        },
        {
          "name": "evidenceCount",
          "type": "uint256",
          "internalType": "uint256"
        }
      ],
      "stateMutability": "view"
    },
    {
      "type": "function",
      "name": "closeCase",
      "inputs": [
        {
          "name": "caseId",
          "type": "string",
          "internalType": "string"
        }
      ],
      "outputs": [],
      "stateMutability": "nonpayable"
    },
    {
      "type": "function",
      "name": "confirmCaseEvidence",
      "inputs": [
        {
          "name": "caseId",
          "type": "string",
          "internalType": "string"
        },
        {
          "name": "index",
          "type": "uint256",
          "internalType": "uint256"
        }
      ],
      "outputs": [],
      "stateMutability": "nonpayable"
    },
    {
      "type": "function",
      "name": "createCaseFromFIR",
      "inputs": [
        {
          "name": "caseId",
          "type": "string",
          "internalType": "string"
        },
        {
          "name": "firId",
          "type": "string",
          "internalType": "string"
        },
        {
          "name": "title",
          "type": "string",
          "internalType": "string"
        },
        {
          "name": "description",
          "type": "string",
          "internalType": "string"
        },
        {
          "name": "tags",
          "type": "string[]",
          "internalType": "string[]"
        }
      ],
      "outputs": [],
      "stateMutability": "nonpayable"
    },
    {
      "type": "function",
      "name": "evidenceAccessed",
      "inputs": [
        {
          "name": "",
          "type": "string",
          "internalType": "string"
        },
        {
          "name": "",
          "type": "uint256",
          "internalType": "uint256"
        },
        {
          "name": "",
          "type": "address",
          "internalType": "address"
        }
      ],
      "outputs": [
        {
          "name": "",
          "type": "bool",
          "internalType": "bool"
        }
      ],
      "stateMutability": "view"
    },
    {
      "type": "function",
      "name": "evidenceConfirmed",
      "inputs": [
        {
          "name": "",
          "type": "string",
          "internalType": "string"
        },
        {
          "name": "",
          "type": "address",
          "internalType": "address"
        }
      ],
      "outputs": [
        {
          "name": "",
          "type": "bool",
          "internalType": "bool"
        }
      ],
      "stateMutability": "view"
    },
    {
      "type": "function",
      "name": "fileFIR",
      "inputs": [
        {
          "name": "firId",
          "type": "string",
          "internalType": "string"
        },
        {
          "name": "description",
          "type": "string",
          "internalType": "string"
        }
      ],
      "outputs": [],
      "stateMutability": "nonpayable"
    },
    {
      "type": "function",
      "name": "firs",
      "inputs": [
        {
          "name": "",
          "type": "string",
          "internalType": "string"
        }
      ],
      "outputs": [
        {
          "name": "firId",
          "type": "string",
          "internalType": "string"
        },
        {
          "name": "filedBy",
          "type": "address",
          "internalType": "address"
        },
        {
          "name": "description",
          "type": "string",
          "internalType": "string"
        },
        {
          "name": "timestamp",
          "type": "uint256",
          "internalType": "uint256"
        },
        {
          "name": "promotedToCase",
          "type": "bool",
          "internalType": "bool"
        },
        {
          "name": "associatedCaseId",
          "type": "string",
          "internalType": "string"
        }
      ],
      "stateMutability": "view"
    },
    {
      "type": "function",
      "name": "getCase",
      "inputs": [
        {
          "name": "caseId",
          "type": "string",
          "internalType": "string"
        }
      ],
      "outputs": [
        {
          "name": "",
          "type": "tuple",
          "internalType": "struct ForensicChain.Case",
          "components": [
            {
              "name": "caseId",
              "type": "string",
              "internalType": "string"
            },
            {
              "name": "title",
              "type": "string",
              "internalType": "string"
            },
            {
              "name": "description",
              "type": "string",
              "internalType": "string"
            },
            {
              "name": "createdBy",
              "type": "address",
              "internalType": "address"
            },
            {
              "name": "seal",
              "type": "bool",
              "internalType": "bool"
            },
            {
              "name": "open",
              "type": "bool",
              "internalType": "bool"
            },
            {
              "name": "tags",
              "type": "string[]",
              "internalType": "string[]"
            },
            {
              "name": "evidenceCount",
              "type": "uint256",
              "internalType": "uint256"
            }
          ]
        }
      ],
      "stateMutability": "view"
    },
    {
      "type": "function",
      "name": "getEvidence",
      "inputs": [
        {
          "name": "caseId",
          "type": "string",
          "internalType": "string"
        },
        {
          "name": "index",
          "type": "uint256",
          "internalType": "uint256"
        }
      ],
      "outputs": [
        {
          "name": "",
          "type": "tuple",
          "internalType": "struct ForensicChain.Evidence",
          "components": [
            {
              "name": "evidenceId",
              "type": "string",
              "internalType": "string"
            },
            {
              "name": "cidEncrypted",
              "type": "string",
              "internalType": "string"
            },
            {
              "name": "hashEncrypted",
              "type": "string",
              "internalType": "string"
            },
            {
              "name": "hashOriginal",
              "type": "string",
              "internalType": "string"
            },
            {
              "name": "encryptionKeyHash",
              "type": "bytes",
              "internalType": "bytes"
            },
            {
              "name": "evidenceType",
              "type": "uint8",
              "internalType": "enum ForensicChain.EvidenceType"
            },
            {
              "name": "submittedBy",
              "type": "address",
              "internalType": "address"
            },
            {
              "name": "confirmed",
              "type": "bool",
              "internalType": "bool"
            },
            {
              "name": "submittedAt",
              "type": "uint256",
              "internalType": "uint256"
            },
            {
              "name": "chainOfCustody",
              "type": "address[]",
              "internalType": "address[]"
            }
          ]
        }
      ],
      "stateMutability": "view"
    },
    {
      "type": "function",
      "name": "getFIR",
      "inputs": [
        {
          "name": "firId",
          "type": "string",
          "internalType": "string"
        }
      ],
      "outputs": [
        {
          "name": "",
          "type": "tuple",
          "internalType": "struct ForensicChain.FIR",
          "components": [
            {
              "name": "firId",
              "type": "string",
              "internalType": "string"
            },
            {
              "name": "filedBy",
              "type": "address",
              "internalType": "address"
            },
            {
              "name": "description",
              "type": "string",
              "internalType": "string"
            },
            {
              "name": "timestamp",
              "type": "uint256",
              "internalType": "uint256"
            },
            {
              "name": "promotedToCase",
              "type": "bool",
              "internalType": "bool"
            },
            {
              "name": "associatedCaseId",
              "type": "string",
              "internalType": "string"
            }
          ]
        }
      ],
      "stateMutability": "view"
    },
    {
      "type": "function",
      "name": "getGlobalRole",
      "inputs": [
        {
          "name": "user",
          "type": "address",
          "internalType": "address"
        }
      ],
      "outputs": [
        {
          "name": "",
          "type": "uint8",
          "internalType": "enum ForensicChain.Role"
        }
      ],
      "stateMutability": "view"
    },
    {
      "type": "function",
      "name": "getMyRoleInCase",
      "inputs": [
        {
          "name": "caseId",
          "type": "string",
          "internalType": "string"
        }
      ],
      "outputs": [
        {
          "name": "",
          "type": "uint8",
          "internalType": "enum ForensicChain.Role"
        }
      ],
      "stateMutability": "view"
    },
    {
      "type": "function",
      "name": "globalRoles",
      "inputs": [
        {
          "name": "",
          "type": "address",
          "internalType": "address"
        }
      ],
      "outputs": [
        {
          "name": "",
          "type": "uint8",
          "internalType": "enum ForensicChain.Role"
        }
      ],
      "stateMutability": "view"
    },
    {
      "type": "function",
      "name": "isSystemLocked",
      "inputs": [],
      "outputs": [
        {
          "name": "",
          "type": "bool",
          "internalType": "bool"
        }
      ],
      "stateMutability": "view"
    },
    {
      "type": "function",
      "name": "owner",
      "inputs": [],
      "outputs": [
        {
          "name": "",
          "type": "address",
          "internalType": "address"
        }
      ],
      "stateMutability": "view"
    },
    {
      "type": "function",
      "name": "reopenCase",
      "inputs": [
        {
          "name": "caseId",
          "type": "string",
          "internalType": "string"
        }
      ],
      "outputs": [],
      "stateMutability": "nonpayable"
    },
    {
      "type": "function",
      "name": "sealCase",
      "inputs": [
        {
          "name": "caseId",
          "type": "string",
          "internalType": "string"
        }
      ],
      "outputs": [],
      "stateMutability": "nonpayable"
    },
    {
      "type": "function",
      "name": "setGlobalRole",
      "inputs": [
        {
          "name": "user",
          "type": "address",
          "internalType": "address"
        },
        {
          "name": "role",
          "type": "uint8",
          "internalType": "enum ForensicChain.Role"
        }
      ],
      "outputs": [],
      "stateMutability": "nonpayable"
    },
    {
      "type": "function",
      "name": "submitCaseEvidence",
      "inputs": [
        {
          "name": "caseId",
          "type": "string",
          "internalType": "string"
        },
        {
          "name": "evidenceId",
          "type": "string",
          "internalType": "string"
        },
        {
          "name": "cidEncrypted",
          "type": "string",
          "internalType": "string"
        },
        {
          "name": "hashEncrypted",
          "type": "string",
          "internalType": "string"
        },
        {
          "name": "hashOriginal",
          "type": "string",
          "internalType": "string"
        },
        {
          "name": "encryptionKeyHash",
          "type": "bytes",
          "internalType": "bytes"
        },
        {
          "name": "evidenceType",
          "type": "uint8",
          "internalType": "enum ForensicChain.EvidenceType"
        }
      ],
      "outputs": [],
      "stateMutability": "nonpayable"
    },
    {
      "type": "function",
      "name": "submitFIREvidence",
      "inputs": [
        {
          "name": "firId",
          "type": "string",
          "internalType": "string"
        },
        {
          "name": "evidenceId",
          "type": "string",
          "internalType": "string"
        },
        {
          "name": "cidEncrypted",
          "type": "string",
          "internalType": "string"
        },
        {
          "name": "hashEncrypted",
          "type": "string",
          "internalType": "string"
        },
        {
          "name": "hashOriginal",
          "type": "string",
          "internalType": "string"
        },
        {
          "name": "encryptionKeyHash",
          "type": "bytes",
          "internalType": "bytes"
        },
        {
          "name": "evidenceType",
          "type": "uint8",
          "internalType": "enum ForensicChain.EvidenceType"
        }
      ],
      "outputs": [],
      "stateMutability": "nonpayable"
    },
    {
      "type": "function",
      "name": "toggleSystemLock",
      "inputs": [],
      "outputs": [],
      "stateMutability": "nonpayable"
    },
    {
      "type": "function",
      "name": "updateEncryptionKey",
      "inputs": [
        {
          "name": "caseId",
          "type": "string",
          "internalType": "string"
        },
        {
          "name": "index",
          "type": "uint256",
          "internalType": "uint256"
        },
        {
          "name": "newKeyHash",
          "type": "bytes",
          "internalType": "bytes"
        }
      ],
      "outputs": [],
      "stateMutability": "nonpayable"
    },
    {
      "type": "function",
      "name": "usedCIDHash",
      "inputs": [
        {
          "name": "",
          "type": "bytes32",
          "internalType": "bytes32"
        }
      ],
      "outputs": [
        {
          "name": "",
          "type": "bool",
          "internalType": "bool"
        }
      ],
      "stateMutability": "view"
    },
    {
      "type": "function",
      "name": "verifyEvidence",
      "inputs": [
        {
          "name": "caseId",
          "type": "string",
          "internalType": "string"
        },
        {
          "name": "index",
          "type": "uint256",
          "internalType": "uint256"
        },
        {
          "name": "providedHash",
          "type": "string",
          "internalType": "string"
        }
      ],
      "outputs": [
        {
          "name": "",
          "type": "bool",
          "internalType": "bool"
        }
      ],
      "stateMutability": "view"
    },
    {
      "type": "event",
      "name": "CaseCreated",
      "inputs": [
        {
          "name": "caseId",
          "type": "string",
          "indexed": true,
          "internalType": "string"
        },
        {
          "name": "firId",
          "type": "string",
          "indexed": true,
          "internalType": "string"
        },
        {
          "name": "creator",
          "type": "address",
          "indexed": false,
          "internalType": "address"
        }
      ],
      "anonymous": false
    },
    {
      "type": "event",
      "name": "CaseStatusChanged",
      "inputs": [
        {
          "name": "caseId",
          "type": "string",
          "indexed": true,
          "internalType": "string"
        },
        {
          "name": "statusSealed",
          "type": "bool",
          "indexed": false,
          "internalType": "bool"
        },
        {
          "name": "open",
          "type": "bool",
          "indexed": false,
          "internalType": "bool"
        }
      ],
      "anonymous": false
    },
    {
      "type": "event",
      "name": "EncryptionKeyUpdated",
      "inputs": [
        {
          "name": "caseId",
          "type": "string",
          "indexed": true,
          "internalType": "string"
        },
        {
          "name": "index",
          "type": "uint256",
          "indexed": true,
          "internalType": "uint256"
        },
        {
          "name": "keyHash",
          "type": "bytes",
          "indexed": false,
          "internalType": "bytes"
        }
      ],
      "anonymous": false
    },
    {
      "type": "event",
      "name": "EvidenceAccessed",
      "inputs": [
        {
          "name": "caseId",
          "type": "string",
          "indexed": true,
          "internalType": "string"
        },
        {
          "name": "index",
          "type": "uint256",
          "indexed": true,
          "internalType": "uint256"
        },
        {
          "name": "accessor",
          "type": "address",
          "indexed": false,
          "internalType": "address"
        }
      ],
      "anonymous": false
    },
    {
      "type": "event",
      "name": "EvidenceConfirmed",
      "inputs": [
        {
          "name": "caseId",
          "type": "string",
          "indexed": true,
          "internalType": "string"
        },
        {
          "name": "index",
          "type": "uint256",
          "indexed": true,
          "internalType": "uint256"
        },
        {
          "name": "confirmer",
          "type": "address",
          "indexed": false,
          "internalType": "address"
        }
      ],
      "anonymous": false
    },
    {
      "type": "event",
      "name": "EvidenceSubmitted",
      "inputs": [
        {
          "name": "caseId",
          "type": "string",
          "indexed": true,
          "internalType": "string"
        },
        {
          "name": "evidenceId",
          "type": "string",
          "indexed": false,
          "internalType": "string"
        },
        {
          "name": "cidEncrypted",
          "type": "string",
          "indexed": false,
          "internalType": "string"
        },
        {
          "name": "submitter",
          "type": "address",
          "indexed": false,
          "internalType": "address"
        }
      ],
      "anonymous": false
    },
    {
      "type": "event",
      "name": "FIRFiled",
      "inputs": [
        {
          "name": "firId",
          "type": "string",
          "indexed": true,
          "internalType": "string"
        },
        {
          "name": "filedBy",
          "type": "address",
          "indexed": true,
          "internalType": "address"
        }
      ],
      "anonymous": false
    },
    {
      "type": "event",
      "name": "RoleAssigned",
      "inputs": [
        {
          "name": "caseId",
          "type": "string",
          "indexed": true,
          "internalType": "string"
        },
        {
          "name": "user",
          "type": "address",
          "indexed": true,
          "internalType": "address"
        },
        {
          "name": "role",
          "type": "uint8",
          "indexed": false,
          "internalType": "enum ForensicChain.Role"
        }
      ],
      "anonymous": false
    }
  ],
  "bytecode": {
    "object": "0x6080604052348015600e575f5ffd5b505f8054336001600160a01b0319909116811782558152600160208190526040909120805460ff191690911790556145d4806100495f395ff3fe608060405234801561000f575f5ffd5b50600436106101d0575f3560e01c806396853b85116100fe578063cbbfe1fc1161009e578063f47dbf0d1161006e578063f47dbf0d146104dd578063f58b067214610520578063f6e715db14610533578063f74328fe14610546575f5ffd5b8063cbbfe1fc14610459578063d4e0682614610484578063d77bdf97146104a4578063df965829146104b7575f5ffd5b8063a23140d2116100d9578063a23140d2146103e3578063a5fd361814610420578063b1ae9e9414610433578063b934669f14610446575f5ffd5b806396853b851461038e5780639d8d2a49146103ae5780639dc17586146103c1575f5ffd5b80637151cda911610174578063832e943f11610144578063832e943f1461032b5780638da5cb5b1461033e57806390712d6a1461036857806395d95a601461037b575f5ffd5b80637151cda9146102d2578063771cc1be146102e557806378ac0caf1461030557806379c7fdd314610318575f5ffd5b80633e6a1a4f116101af5780633e6a1a4f146102605780634966a761146102735780635df512eb146102a25780636fa81f89146102ca575f5ffd5b8062a81646146101d457806326d6570e146102265780632a8d05d81461023b575b5f5ffd5b6102116101e236600461385b565b81516020818401810180516005825292820194820194909420919093529091525f908152604090205460ff1681565b60405190151581526020015b60405180910390f35b6102396102343660046138b3565b610566565b005b61024e6102493660046139ca565b6108c9565b60405161021d96959493929190613a31565b61023961026e3660046139ca565b610ab1565b610295610281366004613a93565b60016020525f908152604090205460ff1681565b60405161021d9190613ac7565b6102b56102b0366004613ae1565b610bd0565b60405161021d99989796959493929190613b36565b610239610ee0565b6102116102e0366004613bd2565b610f42565b6102f86102f3366004613bd2565b611411565b60405161021d9190613c3d565b610239610313366004613c4f565b611694565b610239610326366004613cc0565b6118c8565b6102396103393660046139ca565b6119a4565b5f54610350906001600160a01b031681565b6040516001600160a01b03909116815260200161021d565b6102396103763660046139ca565b611b34565b610239610389366004613ce8565b611c5b565b6103a161039c3660046139ca565b611e11565b60405161021d9190613d41565b6102396103bc366004613ae1565b612065565b6102116103cf366004613dcc565b60066020525f908152604090205460ff1681565b6102956103f136600461385b565b81516020818401810180516004825292820194820194909420919093529091525f908152604090205460ff1681565b61035061042e366004613ae1565b6122a0565b6102396104413660046138b3565b6122e5565b610239610454366004613e85565b6126f2565b610295610467366004613a93565b6001600160a01b03165f9081526001602052604090205460ff1690565b6104976104923660046139ca565b612a56565b60405161021d9190613fbd565b5f5461021190600160a01b900460ff1681565b6104ca6104c53660046139ca565b612da0565b60405161021d9796959493929190614082565b6102116104eb3660046140ea565b825160208185018101805160088252928201958201959095209190945283525f91825260408083209093528152205460ff1681565b61023961052e366004613bd2565b612f8d565b6102956105413660046139ca565b61308e565b610559610554366004613ae1565b6130c3565b60405161021d9190614176565b5f54600160a01b900460ff16156105985760405162461bcd60e51b815260040161058f9061426d565b60405180910390fd5b865f6004826040516105aa91906142bb565b9081526040805160209281900383019020335f908152925290205460ff1660048111156105d9576105d9613ab3565b036105f65760405162461bcd60e51b815260040161058f906142c6565b8760038160405161060791906142bb565b9081526040519081900360200190206003015460ff600160a81b90910416801561065c575060038160405161063c91906142bb565b9081526040519081900360200190206003015460ff600160a01b90910416155b6106a85760405162461bcd60e51b815260206004820152601d60248201527f43617365206973206e6f74206f70656e206f72206973207365616c6564000000604482015260640161058f565b6002335f9081526001602052604090205460ff1660048111156106cd576106cd613ab3565b14806106fb57506003335f9081526001602052604090205460ff1660048111156106f9576106f9613ab3565b145b6107535760405162461bcd60e51b8152602060048201526024808201527f556e617574686f72697a656420726f6c6520746f207375626d69742065766964604482015263656e636560e01b606482015260840161058f565b5f87876040516020016107679291906142f4565b60408051601f1981840301815291815281516020928301205f818152600690935291205490915060ff16156107de5760405162461bcd60e51b815260206004820152601b60248201527f4475706c69636174652065766964656e63652064657465637465640000000000604482015260640161058f565b5f6040518061014001604052808b81526020018a815260200189815260200188815260200187815260200186600381111561081b5761081b613ab3565b8152336020808301919091525f6040808401829052426060850152805191825291810190915260809091015290506108538b826134a2565b5f8281526006602052604090819020805460ff1916600117905551610879908c906142bb565b60405180910390207fe5b88cd90e0d43c91426eb5e40ad85f7f8eb350987ef1093b5335b13b1680bc08b8b336040516108b493929190614308565b60405180910390a25050505050505050505050565b80516020818301810180516002825292820191909301209152805481906108ef90614345565b80601f016020809104026020016040519081016040528092919081815260200182805461091b90614345565b80156109665780601f1061093d57610100808354040283529160200191610966565b820191905f5260205f20905b81548152906001019060200180831161094957829003601f168201915b505050600184015460028501805494956001600160a01b0390921694919350915061099090614345565b80601f01602080910402602001604051908101604052809291908181526020018280546109bc90614345565b8015610a075780601f106109de57610100808354040283529160200191610a07565b820191905f5260205f20905b8154815290600101906020018083116109ea57829003601f168201915b50505050600383015460048401546005850180549495929460ff909216935090610a3090614345565b80601f0160208091040260200160405190810160405280929190818152602001828054610a5c90614345565b8015610aa75780601f10610a7e57610100808354040283529160200191610aa7565b820191905f5260205f20905b815481529060010190602001808311610a8a57829003601f168201915b5050505050905086565b6001335f9081526001602052604090205460ff166004811115610ad657610ad6613ab3565b14610af35760405162461bcd60e51b815260040161058f9061437d565b5f600382604051610b0491906142bb565b908152604051908190036020019020600381015490915060ff600160a01b90910416610b675760405162461bcd60e51b815260206004820152601260248201527110d85cd9481a5cc81b9bdd081cd9585b195960721b604482015260640161058f565b60038101805461ffff60a01b1916600160a81b179055604051610b8b9083906142bb565b604080519182900382205f835260016020840152917fccd3406b26c958e283688c2b3e9613f62a98f3e3765f369ce853e10fc00b379e91015b60405180910390a25050565b81516020818401810180516009825292820194820194909420919093529091525f9081526040902080548190610c0590614345565b80601f0160208091040260200160405190810160405280929190818152602001828054610c3190614345565b8015610c7c5780601f10610c5357610100808354040283529160200191610c7c565b820191905f5260205f20905b815481529060010190602001808311610c5f57829003601f168201915b505050505090806001018054610c9190614345565b80601f0160208091040260200160405190810160405280929190818152602001828054610cbd90614345565b8015610d085780601f10610cdf57610100808354040283529160200191610d08565b820191905f5260205f20905b815481529060010190602001808311610ceb57829003601f168201915b505050505090806002018054610d1d90614345565b80601f0160208091040260200160405190810160405280929190818152602001828054610d4990614345565b8015610d945780601f10610d6b57610100808354040283529160200191610d94565b820191905f5260205f20905b815481529060010190602001808311610d7757829003601f168201915b505050505090806003018054610da990614345565b80601f0160208091040260200160405190810160405280929190818152602001828054610dd590614345565b8015610e205780601f10610df757610100808354040283529160200191610e20565b820191905f5260205f20905b815481529060010190602001808311610e0357829003601f168201915b505050505090806004018054610e3590614345565b80601f0160208091040260200160405190810160405280929190818152602001828054610e6190614345565b8015610eac5780601f10610e8357610100808354040283529160200191610eac565b820191905f5260205f20905b815481529060010190602001808311610e8f57829003601f168201915b5050506005840154600690940154929360ff808216946001600160a01b036101008404169450600160a81b90920416915089565b6001335f9081526001602052604090205460ff166004811115610f0557610f05613ab3565b14610f225760405162461bcd60e51b815260040161058f9061437d565b5f805460ff60a01b198116600160a01b9182900460ff1615909102179055565b5f8381600482604051610f5591906142bb565b9081526040805160209281900383019020335f908152925290205460ff166004811115610f8457610f84613ab3565b03610fa15760405162461bcd60e51b815260040161058f906142c6565b5f600986604051610fb291906142bb565b9081526040805191829003602090810183205f89815291528190206101408301909152805482908290610fe490614345565b80601f016020809104026020016040519081016040528092919081815260200182805461101090614345565b801561105b5780601f106110325761010080835404028352916020019161105b565b820191905f5260205f20905b81548152906001019060200180831161103e57829003601f168201915b5050505050815260200160018201805461107490614345565b80601f01602080910402602001604051908101604052809291908181526020018280546110a090614345565b80156110eb5780601f106110c2576101008083540402835291602001916110eb565b820191905f5260205f20905b8154815290600101906020018083116110ce57829003601f168201915b5050505050815260200160028201805461110490614345565b80601f016020809104026020016040519081016040528092919081815260200182805461113090614345565b801561117b5780601f106111525761010080835404028352916020019161117b565b820191905f5260205f20905b81548152906001019060200180831161115e57829003601f168201915b5050505050815260200160038201805461119490614345565b80601f01602080910402602001604051908101604052809291908181526020018280546111c090614345565b801561120b5780601f106111e25761010080835404028352916020019161120b565b820191905f5260205f20905b8154815290600101906020018083116111ee57829003601f168201915b5050505050815260200160048201805461122490614345565b80601f016020809104026020016040519081016040528092919081815260200182805461125090614345565b801561129b5780601f106112725761010080835404028352916020019161129b565b820191905f5260205f20905b81548152906001019060200180831161127e57829003601f168201915b5050509183525050600582015460209091019060ff1660038111156112c2576112c2613ab3565b60038111156112d3576112d3613ab3565b8152600582015461010081046001600160a01b0316602080840191909152600160a81b90910460ff16151560408084019190915260068401546060840152600784018054825181850281018501909352808352608090940193919290919083018282801561136857602002820191905f5260205f20905b81546001600160a01b0316815260019091019060200180831161134a575b505050505081525050905060038660405161138391906142bb565b90815260200160405180910390206005015485106113b35760405162461bcd60e51b815260040161058f906143bf565b80606001516040516020016113c891906142bb565b60405160208183030381529060405280519060200120846040516020016113ef91906142bb565b6040516020818303038152906040528051906020012014925050509392505050565b6060835f60048260405161142591906142bb565b9081526040805160209281900383019020335f908152925290205460ff16600481111561145457611454613ab3565b036114715760405162461bcd60e51b815260040161058f906142c6565b5f60098660405161148291906142bb565b9081526040805191829003602090810183205f89815291522091506003906114ab9088906142bb565b90815260200160405180910390206005015485106114db5760405162461bcd60e51b815260040161058f906143bf565b806004016040516114ec91906143ef565b60405180910390208480519060200120146115495760405162461bcd60e51b815260206004820152601b60248201527f496e76616c696420656e6372797074696f6e206b657920686173680000000000604482015260640161058f565b600160088760405161155b91906142bb565b90815260408051602092819003830181205f8a815290845282812033808352908552928120805460ff1916951515959095179094556007850180546001810182559085529290932090910180546001600160a01b031916909117905585906115c49088906142bb565b604051908190038120338252907fe3e06dd8850ec972041572f81676250e26ad91ef62689998a3ff7654599f0ca59060200160405180910390a380600101805461160d90614345565b80601f016020809104026020016040519081016040528092919081815260200182805461163990614345565b80156116845780601f1061165b57610100808354040283529160200191611684565b820191905f5260205f20905b81548152906001019060200180831161166757829003601f168201915b5050505050925050509392505050565b5f54600160a01b900460ff16156116bd5760405162461bcd60e51b815260040161058f9061426d565b600280335f9081526001602052604090205460ff1660048111156116e3576116e3613ab3565b146117245760405162461bcd60e51b8152602060048201526011602482015270556e617574686f72697a656420726f6c6560781b604482015260640161058f565b5f6001600160a01b031660028460405161173e91906142bb565b908152604051908190036020019020600101546001600160a01b03161461179c5760405162461bcd60e51b815260206004820152601260248201527146495220616c72656164792065786973747360701b604482015260640161058f565b6040518060c00160405280848152602001336001600160a01b031681526020018381526020014281526020015f1515815260200160405180602001604052805f8152508152506002846040516117f291906142bb565b9081526040519081900360200190208151819061180f90826144ac565b5060208201516001820180546001600160a01b0319166001600160a01b039092169190911790556040820151600282019061184a90826144ac565b5060608201516003820155608082015160048201805460ff191691151591909117905560a0820151600582019061188190826144ac565b50506040513391506118949085906142bb565b604051908190038120907fcd281a32f52a3415be202f822577a194e72cecd7c3fc0c3f1057ff667f3d916a905f90a3505050565b6001335f9081526001602052604090205460ff1660048111156118ed576118ed613ab3565b1461190a5760405162461bcd60e51b815260040161058f9061437d565b5f81600481111561191d5761191d613ab3565b036119645760405162461bcd60e51b815260206004820152601760248201527643616e6e6f742061737369676e204e6f6e6520726f6c6560481b604482015260640161058f565b6001600160a01b0382165f9081526001602081905260409091208054839260ff199091169083600481111561199b5761199b613ab3565b02179055505050565b6001335f9081526001602052604090205460ff1660048111156119c9576119c9613ab3565b146119e65760405162461bcd60e51b815260040161058f9061437d565b5f6003826040516119f791906142bb565b90815260405190819003602001902060038101805460ff60a81b1916905590505f5b600783604051611a2991906142bb565b90815260405190819003602001902054811015611ad9575f600484604051611a5191906142bb565b90815260200160405180910390205f600786604051611a7091906142bb565b90815260200160405180910390208481548110611a8f57611a8f614566565b5f9182526020808320909101546001600160a01b031683528201929092526040019020805460ff19166001836004811115611acc57611acc613ab3565b0217905550600101611a19565b5081604051611ae891906142bb565b604080519182900382206003840154600160a01b900460ff16151583525f6020840152917fccd3406b26c958e283688c2b3e9613f62a98f3e3765f369ce853e10fc00b379e9101610bc4565b6001335f9081526001602052604090205460ff166004811115611b5957611b59613ab3565b14611b765760405162461bcd60e51b815260040161058f9061437d565b5f600382604051611b8791906142bb565b908152604051908190036020019020600381015490915060ff600160a81b90910416611beb5760405162461bcd60e51b815260206004820152601360248201527210d85cd948185b1c9958591e4818db1bdcd959606a1b604482015260640161058f565b60038101805460ff60a01b1916600160a01b179055604051611c0e9083906142bb565b60408051918290038220600384015460018452600160a81b900460ff1615156020840152917fccd3406b26c958e283688c2b3e9613f62a98f3e3765f369ce853e10fc00b379e9101610bc4565b5f54600160a01b900460ff1615611c845760405162461bcd60e51b815260040161058f9061426d565b6001335f9081526001602052604090205460ff166004811115611ca957611ca9613ab3565b14611cc65760405162461bcd60e51b815260040161058f9061437d565b5f816004811115611cd957611cd9613ab3565b03611d205760405162461bcd60e51b815260206004820152601760248201527643616e6e6f742061737369676e204e6f6e6520726f6c6560481b604482015260640161058f565b80600484604051611d3191906142bb565b90815260408051602092819003830190206001600160a01b0386165f90815292529020805460ff19166001836004811115611d6e57611d6e613ab3565b0217905550600783604051611d8391906142bb565b908152604051908190036020908101822080546001810182555f9182529190200180546001600160a01b0385166001600160a01b0319909116811790915590611dcd9085906142bb565b60405180910390207f840001fdf1f35980eb6dd48ae96029ae5fc90f3baacb74fc21f6da4d56437dc483604051611e049190613ac7565b60405180910390a3505050565b611e526040518060c00160405280606081526020015f6001600160a01b03168152602001606081526020015f81526020015f15158152602001606081525090565b600282604051611e6291906142bb565b90815260200160405180910390206040518060c00160405290815f82018054611e8a90614345565b80601f0160208091040260200160405190810160405280929190818152602001828054611eb690614345565b8015611f015780601f10611ed857610100808354040283529160200191611f01565b820191905f5260205f20905b815481529060010190602001808311611ee457829003601f168201915b505050918352505060018201546001600160a01b03166020820152600282018054604090920191611f3190614345565b80601f0160208091040260200160405190810160405280929190818152602001828054611f5d90614345565b8015611fa85780601f10611f7f57610100808354040283529160200191611fa8565b820191905f5260205f20905b815481529060010190602001808311611f8b57829003601f168201915b505050918352505060038201546020820152600482015460ff1615156040820152600582018054606090920191611fde90614345565b80601f016020809104026020016040519081016040528092919081815260200182805461200a90614345565b80156120555780601f1061202c57610100808354040283529160200191612055565b820191905f5260205f20905b81548152906001019060200180831161203857829003601f168201915b5050505050815250509050919050565b5f54600160a01b900460ff161561208e5760405162461bcd60e51b815260040161058f9061426d565b815f6004826040516120a091906142bb565b9081526040805160209281900383019020335f908152925290205460ff1660048111156120cf576120cf613ab3565b036120ec5760405162461bcd60e51b815260040161058f906142c6565b5f6009846040516120fd91906142bb565b9081526040805191829003602090810183205f87815291522091506003906121269086906142bb565b90815260200160405180910390206005015483106121565760405162461bcd60e51b815260040161058f906143bf565b6005810154600160a81b900460ff16156121b25760405162461bcd60e51b815260206004820152601a60248201527f45766964656e636520616c726561647920636f6e6669726d6564000000000000604482015260640161058f565b6005810154336101009091046001600160a01b0316036122145760405162461bcd60e51b815260206004820152601c60248201527f43616e6e6f742073656c662d636f6e6669726d2065766964656e636500000000604482015260640161058f565b60058101805460ff60a81b1916600160a81b1790556007810180546001810182555f91825260209091200180546001600160a01b03191633179055604051839061225f9086906142bb565b604051908190038120338252907f734e7f8be793338a34800160b116009c5270ae949d4b6a7a71b800327096a2e8906020015b60405180910390a350505050565b815160208184018101805160078252928201918501919091209190528054829081106122ca575f80fd5b5f918252602090912001546001600160a01b03169150829050565b5f54600160a01b900460ff161561230e5760405162461bcd60e51b815260040161058f9061426d565b6002335f9081526001602052604090205460ff16600481111561233357612333613ab3565b148061236157506003335f9081526001602052604090205460ff16600481111561235f5761235f613ab3565b145b61239c5760405162461bcd60e51b815260206004820152600c60248201526b155b985d5d1a1bdc9a5e995960a21b604482015260640161058f565b5f6001600160a01b03166002886040516123b691906142bb565b908152604051908190036020019020600101546001600160a01b03160361240f5760405162461bcd60e51b815260206004820152600d60248201526c119254881b9bdd08199bdd5b99609a1b604482015260640161058f565b60028760405161241f91906142bb565b9081526040519081900360200190206004015460ff16156124825760405162461bcd60e51b815260206004820152601c60248201527f46495220616c72656164792070726f6d6f74656420746f206361736500000000604482015260640161058f565b5f85856040516020016124969291906142f4565b60408051601f1981840301815291815281516020928301205f818152600690935291205490915060ff161561250d5760405162461bcd60e51b815260206004820152601b60248201527f4475706c69636174652065766964656e63652064657465637465640000000000604482015260640161058f565b5f60028960405161251e91906142bb565b9081526020016040518091039020600501805461253a90614345565b80601f016020809104026020016040519081016040528092919081815260200182805461256690614345565b80156125b15780601f10612588576101008083540402835291602001916125b1565b820191905f5260205f20905b81548152906001019060200180831161259457829003601f168201915b5050505050905080515f036126085760405162461bcd60e51b815260206004820152601860248201527f4e6f206173736f636961746564206361736520666f756e640000000000000000604482015260640161058f565b5f6040518061014001604052808a815260200189815260200188815260200187815260200186815260200185600381111561264557612645613ab3565b8152336020808301919091525f60408084018290524260608501528051918252918101909152608090910152905061267d82826134a2565b5f8381526006602052604090819020805460ff19166001179055516126a39083906142bb565b60405180910390207fe5b88cd90e0d43c91426eb5e40ad85f7f8eb350987ef1093b5335b13b1680bc08a8a336040516126de93929190614308565b60405180910390a250505050505050505050565b5f54600160a01b900460ff161561271b5760405162461bcd60e51b815260040161058f9061426d565b6001335f9081526001602052604090205460ff16600481111561274057612740613ab3565b1461275d5760405162461bcd60e51b815260040161058f9061437d565b5f6001600160a01b031660038660405161277791906142bb565b908152604051908190036020019020600301546001600160a01b0316146127d65760405162461bcd60e51b81526020600482015260136024820152724361736520616c72656164792065786973747360681b604482015260640161058f565b5f6001600160a01b03166002856040516127f091906142bb565b908152604051908190036020019020600101546001600160a01b0316036128495760405162461bcd60e51b815260206004820152600d60248201526c119254881b9bdd08199bdd5b99609a1b604482015260640161058f565b60028460405161285991906142bb565b9081526040519081900360200190206004015460ff16156128b35760405162461bcd60e51b815260206004820152601460248201527311925488185b1c9958591e481c1c9bdb5bdd195960621b604482015260640161058f565b5f6003866040516128c491906142bb565b9081526040519081900360200190209050806128e087826144ac565b50600181016128ef85826144ac565b50600281016128fe84826144ac565b5060038101805461ffff60a01b1933166001600160b01b031990911617600160a81b17905581516129389060048301906020850190613603565b505f60058201556040516001906002906129539088906142bb565b908152604051908190036020018120600401805492151560ff199093169290921790915586906002906129879088906142bb565b908152602001604051809103902060050190816129a491906144ac565b5060016004876040516129b791906142bb565b9081526040805160209281900383019020335f90815292529020805460ff191660018360048111156129eb576129eb613ab3565b0217905550846040516129fe91906142bb565b604051809103902086604051612a1491906142bb565b604051908190038120338252907f4e34de79d280cd9497dda47ec7e91d7d4a0eed0588479d8ec91fd4cf3dbb1f529060200160405180910390a3505050505050565b612aa76040518061010001604052806060815260200160608152602001606081526020015f6001600160a01b031681526020015f151581526020015f15158152602001606081526020015f81525090565b600382604051612ab791906142bb565b9081526020016040518091039020604051806101000160405290815f82018054612ae090614345565b80601f0160208091040260200160405190810160405280929190818152602001828054612b0c90614345565b8015612b575780601f10612b2e57610100808354040283529160200191612b57565b820191905f5260205f20905b815481529060010190602001808311612b3a57829003601f168201915b50505050508152602001600182018054612b7090614345565b80601f0160208091040260200160405190810160405280929190818152602001828054612b9c90614345565b8015612be75780601f10612bbe57610100808354040283529160200191612be7565b820191905f5260205f20905b815481529060010190602001808311612bca57829003601f168201915b50505050508152602001600282018054612c0090614345565b80601f0160208091040260200160405190810160405280929190818152602001828054612c2c90614345565b8015612c775780601f10612c4e57610100808354040283529160200191612c77565b820191905f5260205f20905b815481529060010190602001808311612c5a57829003601f168201915b505050918352505060038201546001600160a01b03811660208084019190915260ff600160a01b830481161515604080860191909152600160a81b909304161515606084015260048401805483518184028101840190945280845260809094019390915f9084015b82821015612d87578382905f5260205f20018054612cfc90614345565b80601f0160208091040260200160405190810160405280929190818152602001828054612d2890614345565b8015612d735780601f10612d4a57610100808354040283529160200191612d73565b820191905f5260205f20905b815481529060010190602001808311612d5657829003601f168201915b505050505081526020019060010190612cdf565b5050505081526020016005820154815250509050919050565b8051602081830181018051600382529282019190930120915280548190612dc690614345565b80601f0160208091040260200160405190810160405280929190818152602001828054612df290614345565b8015612e3d5780601f10612e1457610100808354040283529160200191612e3d565b820191905f5260205f20905b815481529060010190602001808311612e2057829003601f168201915b505050505090806001018054612e5290614345565b80601f0160208091040260200160405190810160405280929190818152602001828054612e7e90614345565b8015612ec95780601f10612ea057610100808354040283529160200191612ec9565b820191905f5260205f20905b815481529060010190602001808311612eac57829003601f168201915b505050505090806002018054612ede90614345565b80601f0160208091040260200160405190810160405280929190818152602001828054612f0a90614345565b8015612f555780601f10612f2c57610100808354040283529160200191612f55565b820191905f5260205f20905b815481529060010190602001808311612f3857829003601f168201915b505050600384015460059094015492936001600160a01b0381169360ff600160a01b830481169450600160a81b909204909116915087565b6001335f9081526001602052604090205460ff166004811115612fb257612fb2613ab3565b14612fcf5760405162461bcd60e51b815260040161058f9061437d565b5f600984604051612fe091906142bb565b9081526040805191829003602090810183205f87815291522091506003906130099086906142bb565b90815260200160405180910390206005015483106130395760405162461bcd60e51b815260040161058f906143bf565b6004810161304783826144ac565b50828460405161305791906142bb565b60405180910390207f79c218b424451eed48c6fef5a1c1080205563dbb38a130935b0ea387256fb6f7846040516122929190613c3d565b5f60048260405161309f91906142bb565b9081526040805160209281900383019020335f908152925290205460ff1692915050565b6130cb613657565b6009836040516130db91906142bb565b9081526040805191829003602090810183205f8681529152819020610140830190915280548290829061310d90614345565b80601f016020809104026020016040519081016040528092919081815260200182805461313990614345565b80156131845780601f1061315b57610100808354040283529160200191613184565b820191905f5260205f20905b81548152906001019060200180831161316757829003601f168201915b5050505050815260200160018201805461319d90614345565b80601f01602080910402602001604051908101604052809291908181526020018280546131c990614345565b80156132145780601f106131eb57610100808354040283529160200191613214565b820191905f5260205f20905b8154815290600101906020018083116131f757829003601f168201915b5050505050815260200160028201805461322d90614345565b80601f016020809104026020016040519081016040528092919081815260200182805461325990614345565b80156132a45780601f1061327b576101008083540402835291602001916132a4565b820191905f5260205f20905b81548152906001019060200180831161328757829003601f168201915b505050505081526020016003820180546132bd90614345565b80601f01602080910402602001604051908101604052809291908181526020018280546132e990614345565b80156133345780601f1061330b57610100808354040283529160200191613334565b820191905f5260205f20905b81548152906001019060200180831161331757829003601f168201915b5050505050815260200160048201805461334d90614345565b80601f016020809104026020016040519081016040528092919081815260200182805461337990614345565b80156133c45780601f1061339b576101008083540402835291602001916133c4565b820191905f5260205f20905b8154815290600101906020018083116133a757829003601f168201915b5050509183525050600582015460209091019060ff1660038111156133eb576133eb613ab3565b60038111156133fc576133fc613ab3565b8152600582015461010081046001600160a01b0316602080840191909152600160a81b90910460ff16151560408084019190915260068401546060840152600784018054825181850281018501909352808352608090940193919290919083018282801561349157602002820191905f5260205f20905b81546001600160a01b03168152600190910190602001808311613473575b505050505081525050905092915050565b5f6003836040516134b391906142bb565b90815260200160405180910390209050816009846040516134d491906142bb565b908152604080516020928190038301902060058501545f908152925290208151819061350090826144ac565b506020820151600182019061351590826144ac565b506040820151600282019061352a90826144ac565b506060820151600382019061353f90826144ac565b506080820151600482019061355490826144ac565b5060a082015160058201805460ff1916600183600381111561357857613578613ab3565b021790555060c082015160058201805460e0850151610100600160b01b03199091166101006001600160a01b03909416840260ff60a81b191617600160a81b91151591909102179055820151600682015561012082015180516135e59160078401916020909101906136c2565b505050600581018054905f6135f98361457a565b9190505550505050565b828054828255905f5260205f20908101928215613647579160200282015b82811115613647578251829061363790826144ac565b5091602001919060010190613621565b50613653929150613721565b5090565b60405180610140016040528060608152602001606081526020016060815260200160608152602001606081526020015f600381111561369857613698613ab3565b81526020015f6001600160a01b031681526020015f151581526020015f8152602001606081525090565b828054828255905f5260205f20908101928215613715579160200282015b8281111561371557825182546001600160a01b0319166001600160a01b039091161782556020909201916001909101906136e0565b5061365392915061373d565b80821115613653575f6137348282613751565b50600101613721565b5b80821115613653575f815560010161373e565b50805461375d90614345565b5f825580601f1061376c575050565b601f0160209004905f5260205f2090810190613788919061373d565b50565b634e487b7160e01b5f52604160045260245ffd5b604051601f8201601f191681016001600160401b03811182821017156137c7576137c761378b565b604052919050565b5f82601f8301126137de575f5ffd5b8135602083015f5f6001600160401b038411156137fd576137fd61378b565b50601f8301601f19166020016138128161379f565b915050828152858383011115613826575f5ffd5b828260208301375f92810160200192909252509392505050565b80356001600160a01b0381168114613856575f5ffd5b919050565b5f5f6040838503121561386c575f5ffd5b82356001600160401b03811115613881575f5ffd5b61388d858286016137cf565b92505061389c60208401613840565b90509250929050565b803560048110613856575f5ffd5b5f5f5f5f5f5f5f60e0888a0312156138c9575f5ffd5b87356001600160401b038111156138de575f5ffd5b6138ea8a828b016137cf565b97505060208801356001600160401b03811115613905575f5ffd5b6139118a828b016137cf565b96505060408801356001600160401b0381111561392c575f5ffd5b6139388a828b016137cf565b95505060608801356001600160401b03811115613953575f5ffd5b61395f8a828b016137cf565b94505060808801356001600160401b0381111561397a575f5ffd5b6139868a828b016137cf565b93505060a08801356001600160401b038111156139a1575f5ffd5b6139ad8a828b016137cf565b9250506139bc60c089016138a5565b905092959891949750929550565b5f602082840312156139da575f5ffd5b81356001600160401b038111156139ef575f5ffd5b6139fb848285016137cf565b949350505050565b5f81518084528060208401602086015e5f602082860101526020601f19601f83011685010191505092915050565b60c081525f613a4360c0830189613a03565b6001600160a01b03881660208401528281036040840152613a648188613a03565b9050856060840152841515608084015282810360a0840152613a868185613a03565b9998505050505050505050565b5f60208284031215613aa3575f5ffd5b613aac82613840565b9392505050565b634e487b7160e01b5f52602160045260245ffd5b6020810160058310613adb57613adb613ab3565b91905290565b5f5f60408385031215613af2575f5ffd5b82356001600160401b03811115613b07575f5ffd5b613b13858286016137cf565b95602094909401359450505050565b60048110613b3257613b32613ab3565b9052565b61012081525f613b4a61012083018c613a03565b8281036020840152613b5c818c613a03565b90508281036040840152613b70818b613a03565b90508281036060840152613b84818a613a03565b90508281036080840152613b988189613a03565b915050613ba860a0830187613b22565b6001600160a01b039490941660c082015291151560e0830152610100909101529695505050505050565b5f5f5f60608486031215613be4575f5ffd5b83356001600160401b03811115613bf9575f5ffd5b613c05868287016137cf565b9350506020840135915060408401356001600160401b03811115613c27575f5ffd5b613c33868287016137cf565b9150509250925092565b602081525f613aac6020830184613a03565b5f5f60408385031215613c60575f5ffd5b82356001600160401b03811115613c75575f5ffd5b613c81858286016137cf565b92505060208301356001600160401b03811115613c9c575f5ffd5b613ca8858286016137cf565b9150509250929050565b803560058110613856575f5ffd5b5f5f60408385031215613cd1575f5ffd5b613cda83613840565b915061389c60208401613cb2565b5f5f5f60608486031215613cfa575f5ffd5b83356001600160401b03811115613d0f575f5ffd5b613d1b868287016137cf565b935050613d2a60208501613840565b9150613d3860408501613cb2565b90509250925092565b602081525f825160c06020840152613d5c60e0840182613a03565b60208501516001600160a01b0316604085810191909152850151848203601f19016060860152909150613d8f8282613a03565b915050606084015160808401526080840151151560a084015260a0840151601f198483030160c0850152613dc38282613a03565b95945050505050565b5f60208284031215613ddc575f5ffd5b5035919050565b5f82601f830112613df2575f5ffd5b81356001600160401b03811115613e0b57613e0b61378b565b8060051b613e1b6020820161379f565b91825260208185018101929081019086841115613e36575f5ffd5b6020860192505b83831015613e7b5782356001600160401b03811115613e5a575f5ffd5b613e69886020838a01016137cf565b83525060209283019290910190613e3d565b9695505050505050565b5f5f5f5f5f60a08688031215613e99575f5ffd5b85356001600160401b03811115613eae575f5ffd5b613eba888289016137cf565b95505060208601356001600160401b03811115613ed5575f5ffd5b613ee1888289016137cf565b94505060408601356001600160401b03811115613efc575f5ffd5b613f08888289016137cf565b93505060608601356001600160401b03811115613f23575f5ffd5b613f2f888289016137cf565b92505060808601356001600160401b03811115613f4a575f5ffd5b613f5688828901613de3565b9150509295509295909350565b5f82825180855260208501945060208160051b830101602085015f5b83811015613fb157601f19858403018852613f9b838351613a03565b6020988901989093509190910190600101613f7f565b50909695505050505050565b602081525f82516101006020840152613fda610120840182613a03565b90506020840151601f19848303016040850152613ff78282613a03565b9150506040840151601f198483030160608501526140158282613a03565b915050606084015161403260808501826001600160a01b03169052565b50608084015180151560a08501525060a084015180151560c08501525060c0840151838203601f190160e085015261406a8282613f63565b91505060e08401516101008401528091505092915050565b60e081525f61409460e083018a613a03565b82810360208401526140a6818a613a03565b905082810360408401526140ba8189613a03565b6001600160a01b039790971660608401525050921515608084015290151560a083015260c0909101529392505050565b5f5f5f606084860312156140fc575f5ffd5b83356001600160401b03811115614111575f5ffd5b61411d868287016137cf565b93505060208401359150613d3860408501613840565b5f8151808452602084019350602083015f5b8281101561416c5781516001600160a01b0316865260209586019590910190600101614145565b5093949350505050565b602081525f82516101406020840152614193610160840182613a03565b90506020840151601f198483030160408501526141b08282613a03565b9150506040840151601f198483030160608501526141ce8282613a03565b9150506060840151601f198483030160808501526141ec8282613a03565b9150506080840151601f198483030160a085015261420a8282613a03565b91505060a084015161421f60c0850182613b22565b5060c08401516001600160a01b03811660e08501525060e084015180151561010085015250610100840151610120840152610120840151601f1984830301610140850152613dc38282614133565b6020808252601b908201527f53797374656d20697320696e20656d657267656e6379206c6f636b0000000000604082015260600190565b5f81518060208401855e5f93019283525090919050565b5f613aac82846142a4565b6020808252601490820152734e6f742061737369676e656420746f206361736560601b604082015260600190565b5f6139fb61430283866142a4565b846142a4565b606081525f61431a6060830186613a03565b828103602084015261432c8186613a03565b91505060018060a01b0383166040830152949350505050565b600181811c9082168061435957607f821691505b60208210810361437757634e487b7160e01b5f52602260045260245ffd5b50919050565b60208082526022908201527f4f6e6c7920436f7572742063616e20706572666f726d2074686973206163746960408201526137b760f11b606082015260800190565b602080825260169082015275092dcecc2d8d2c840caecd2c8cadcc6ca40d2dcc8caf60531b604082015260600190565b5f5f83546143fc81614345565b600182168015614413576001811461442857614455565b60ff1983168652811515820286019350614455565b865f5260205f205f5b8381101561444d57815488820152600190910190602001614431565b505081860193505b509195945050505050565b601f8211156144a757805f5260205f20601f840160051c810160208510156144855750805b601f840160051c820191505b818110156144a4575f8155600101614491565b50505b505050565b81516001600160401b038111156144c5576144c561378b565b6144d9816144d38454614345565b84614460565b6020601f82116001811461450b575f83156144f45750848201515b5f19600385901b1c1916600184901b1784556144a4565b5f84815260208120601f198516915b8281101561453a578785015182556020948501946001909201910161451a565b508482101561455757868401515f19600387901b60f8161c191681555b50505050600190811b01905550565b634e487b7160e01b5f52603260045260245ffd5b5f6001820161459757634e487b7160e01b5f52601160045260245ffd5b506001019056fea2646970667358221220d51c9f48f45c10f79aee81ae3ff9ac46444baa790e05abdb7ce4ae5c4fc57a8164736f6c634300081d0033",
    "linkReferences": {}
  },
  "methodIdentifiers": {
    "accessEvidence(string,uint256,bytes)": "771cc1be",
    "assignCaseRole(string,address,uint8)": "95d95a60",
    "caseAuditTrail(string,uint256)": "a5fd3618",
    "caseEvidenceMapping(string,uint256)": "5df512eb",
    "caseRoles(string,address)": "a23140d2",
    "cases(string)": "df965829",
    "closeCase(string)": "832e943f",
    "confirmCaseEvidence(string,uint256)": "9d8d2a49",
    "createCaseFromFIR(string,string,string,string,string[])": "b934669f",
    "evidenceAccessed(string,uint256,address)": "f47dbf0d",
    "evidenceConfirmed(string,address)": "00a81646",
    "fileFIR(string,string)": "78ac0caf",
    "firs(string)": "2a8d05d8",
    "getCase(string)": "d4e06826",
    "getEvidence(string,uint256)": "f74328fe",
    "getFIR(string)": "96853b85",
    "getGlobalRole(address)": "cbbfe1fc",
    "getMyRoleInCase(string)": "f6e715db",
    "globalRoles(address)": "4966a761",
    "isSystemLocked()": "d77bdf97",
    "owner()": "8da5cb5b",
    "reopenCase(string)": "3e6a1a4f",
    "sealCase(string)": "90712d6a",
    "setGlobalRole(address,uint8)": "79c7fdd3",
    "submitCaseEvidence(string,string,string,string,string,bytes,uint8)": "26d6570e",
    "submitFIREvidence(string,string,string,string,string,bytes,uint8)": "b1ae9e94",
    "toggleSystemLock()": "6fa81f89",
    "updateEncryptionKey(string,uint256,bytes)": "f58b0672",
    "usedCIDHash(bytes32)": "9dc17586",
    "verifyEvidence(string,uint256,string)": "7151cda9"
  },
  "id": 21
}