{"abi":[{"type":"constructor","inputs":[],"stateMutability":"nonpayable"},{"type":"function","name":"accessEvidence","inputs":[{"name":"caseId","type":"string","internalType":"string"},{"name":"index","type":"uint256","internalType":"uint256"},{"name":"keyHash","type":"bytes","internalType":"bytes"}],"outputs":[{"name":"","type":"string","internalType":"string"}],"stateMutability":"nonpayable"},{"type":"function","name":"assignCaseRole","inputs":[{"name":"caseId","type":"string","internalType":"string"},{"name":"user","type":"address","internalType":"address"},{"name":"role","type":"uint8","internalType":"enum ForensicChain.Role"}],"outputs":[],"stateMutability":"nonpayable"},{"type":"function","name":"caseAuditTrail","inputs":[{"name":"","type":"string","internalType":"string"},{"name":"","type":"uint256","internalType":"uint256"}],"outputs":[{"name":"","type":"address","internalType":"address"}],"stateMutability":"view"},{"type":"function","name":"caseEvidenceMapping","inputs":[{"name":"","type":"string","internalType":"string"},{"name":"","type":"uint256","internalType":"uint256"}],"outputs":[{"name":"evidenceId","type":"string","internalType":"string"},{"name":"cidEncrypted","type":"string","internalType":"string"},{"name":"hashEncrypted","type":"string","internalType":"string"},{"name":"hashOriginal","type":"string","internalType":"string"},{"name":"encryptionKeyHash","type":"bytes","internalType":"bytes"},{"name":"evidenceType","type":"uint8","internalType":"enum ForensicChain.EvidenceType"},{"name":"submittedBy","type":"address","internalType":"address"},{"name":"confirmed","type":"bool","internalType":"bool"},{"name":"submittedAt","type":"uint256","internalType":"uint256"}],"stateMutability":"view"},{"type":"function","name":"caseIds","inputs":[{"name":"","type":"uint256","internalType":"uint256"}],"outputs":[{"name":"","type":"string","internalType":"string"}],"stateMutability":"view"},{"type":"function","name":"caseRoles","inputs":[{"name":"","type":"string","internalType":"string"},{"name":"","type":"address","internalType":"address"}],"outputs":[{"name":"","type":"uint8","internalType":"enum ForensicChain.Role"}],"stateMutability":"view"},{"type":"function","name":"cases","inputs":[{"name":"","type":"string","internalType":"string"}],"outputs":[{"name":"caseId","type":"string","internalType":"string"},{"name":"title","type":"string","internalType":"string"},{"name":"description","type":"string","internalType":"string"},{"name":"createdBy","type":"address","internalType":"address"},{"name":"seal","type":"bool","internalType":"bool"},{"name":"open","type":"bool","internalType":"bool"},{"name":"evidenceCount","type":"uint256","internalType":"uint256"}],"stateMutability":"view"},{"type":"function","name":"closeCase","inputs":[{"name":"caseId","type":"string","internalType":"string"}],"outputs":[],"stateMutability":"nonpayable"},{"type":"function","name":"confirmCaseEvidence","inputs":[{"name":"caseId","type":"string","internalType":"string"},{"name":"index","type":"uint256","internalType":"uint256"}],"outputs":[],"stateMutability":"nonpayable"},{"type":"function","name":"createCaseFromFIR","inputs":[{"name":"caseId","type":"string","internalType":"string"},{"name":"firId","type":"string","internalType":"string"},{"name":"title","type":"string","internalType":"string"},{"name":"description","type":"string","internalType":"string"},{"name":"tags","type":"string[]","internalType":"string[]"}],"outputs":[],"stateMutability":"nonpayable"},{"type":"function","name":"evidenceAccessed","inputs":[{"name":"","type":"string","internalType":"string"},{"name":"","type":"uint256","internalType":"uint256"},{"name":"","type":"address","internalType":"address"}],"outputs":[{"name":"","type":"bool","internalType":"bool"}],"stateMutability":"view"},{"type":"function","name":"evidenceConfirmed","inputs":[{"name":"","type":"string","internalType":"string"},{"name":"","type":"address","internalType":"address"}],"outputs":[{"name":"","type":"bool","internalType":"bool"}],"stateMutability":"view"},{"type":"function","name":"fileFIR","inputs":[{"name":"firId","type":"string","internalType":"string"},{"name":"description","type":"string","internalType":"string"}],"outputs":[],"stateMutability":"nonpayable"},{"type":"function","name":"firs","inputs":[{"name":"","type":"string","internalType":"string"}],"outputs":[{"name":"firId","type":"string","internalType":"string"},{"name":"filedBy","type":"address","internalType":"address"},{"name":"description","type":"string","internalType":"string"},{"name":"timestamp","type":"uint256","internalType":"uint256"},{"name":"promotedToCase","type":"bool","internalType":"bool"},{"name":"associatedCaseId","type":"string","internalType":"string"}],"stateMutability":"view"},{"type":"function","name":"getAllCases","inputs":[],"outputs":[{"name":"","type":"tuple[]","internalType":"struct ForensicChain.Case[]","components":[{"name":"caseId","type":"string","internalType":"string"},{"name":"title","type":"string","internalType":"string"},{"name":"description","type":"string","internalType":"string"},{"name":"createdBy","type":"address","internalType":"address"},{"name":"seal","type":"bool","internalType":"bool"},{"name":"open","type":"bool","internalType":"bool"},{"name":"tags","type":"string[]","internalType":"string[]"},{"name":"evidenceCount","type":"uint256","internalType":"uint256"}]}],"stateMutability":"view"},{"type":"function","name":"getCase","inputs":[{"name":"caseId","type":"string","internalType":"string"}],"outputs":[{"name":"","type":"tuple","internalType":"struct ForensicChain.Case","components":[{"name":"caseId","type":"string","internalType":"string"},{"name":"title","type":"string","internalType":"string"},{"name":"description","type":"string","internalType":"string"},{"name":"createdBy","type":"address","internalType":"address"},{"name":"seal","type":"bool","internalType":"bool"},{"name":"open","type":"bool","internalType":"bool"},{"name":"tags","type":"string[]","internalType":"string[]"},{"name":"evidenceCount","type":"uint256","internalType":"uint256"}]}],"stateMutability":"view"},{"type":"function","name":"getEvidence","inputs":[{"name":"caseId","type":"string","internalType":"string"},{"name":"index","type":"uint256","internalType":"uint256"}],"outputs":[{"name":"","type":"tuple","internalType":"struct ForensicChain.Evidence","components":[{"name":"evidenceId","type":"string","internalType":"string"},{"name":"cidEncrypted","type":"string","internalType":"string"},{"name":"hashEncrypted","type":"string","internalType":"string"},{"name":"hashOriginal","type":"string","internalType":"string"},{"name":"encryptionKeyHash","type":"bytes","internalType":"bytes"},{"name":"evidenceType","type":"uint8","internalType":"enum ForensicChain.EvidenceType"},{"name":"submittedBy","type":"address","internalType":"address"},{"name":"confirmed","type":"bool","internalType":"bool"},{"name":"submittedAt","type":"uint256","internalType":"uint256"},{"name":"chainOfCustody","type":"address[]","internalType":"address[]"}]}],"stateMutability":"view"},{"type":"function","name":"getFIR","inputs":[{"name":"firId","type":"string","internalType":"string"}],"outputs":[{"name":"","type":"tuple","internalType":"struct ForensicChain.FIR","components":[{"name":"firId","type":"string","internalType":"string"},{"name":"filedBy","type":"address","internalType":"address"},{"name":"description","type":"string","internalType":"string"},{"name":"timestamp","type":"uint256","internalType":"uint256"},{"name":"promotedToCase","type":"bool","internalType":"bool"},{"name":"associatedCaseId","type":"string","internalType":"string"}]}],"stateMutability":"view"},{"type":"function","name":"getGlobalRole","inputs":[{"name":"user","type":"address","internalType":"address"}],"outputs":[{"name":"","type":"uint8","internalType":"enum ForensicChain.Role"}],"stateMutability":"view"},{"type":"function","name":"getMyRoleInCase","inputs":[{"name":"caseId","type":"string","internalType":"string"}],"outputs":[{"name":"","type":"uint8","internalType":"enum ForensicChain.Role"}],"stateMutability":"view"},{"type":"function","name":"globalRoles","inputs":[{"name":"","type":"address","internalType":"address"}],"outputs":[{"name":"","type":"uint8","internalType":"enum ForensicChain.Role"}],"stateMutability":"view"},{"type":"function","name":"isSystemLocked","inputs":[],"outputs":[{"name":"","type":"bool","internalType":"bool"}],"stateMutability":"view"},{"type":"function","name":"owner","inputs":[],"outputs":[{"name":"","type":"address","internalType":"address"}],"stateMutability":"view"},{"type":"function","name":"reopenCase","inputs":[{"name":"caseId","type":"string","internalType":"string"}],"outputs":[],"stateMutability":"nonpayable"},{"type":"function","name":"sealCase","inputs":[{"name":"caseId","type":"string","internalType":"string"}],"outputs":[],"stateMutability":"nonpayable"},{"type":"function","name":"setGlobalRole","inputs":[{"name":"user","type":"address","internalType":"address"},{"name":"role","type":"uint8","internalType":"enum ForensicChain.Role"}],"outputs":[],"stateMutability":"nonpayable"},{"type":"function","name":"submitCaseEvidence","inputs":[{"name":"caseId","type":"string","internalType":"string"},{"name":"evidenceId","type":"string","internalType":"string"},{"name":"cidEncrypted","type":"string","internalType":"string"},{"name":"hashEncrypted","type":"string","internalType":"string"},{"name":"hashOriginal","type":"string","internalType":"string"},{"name":"encryptionKeyHash","type":"bytes","internalType":"bytes"},{"name":"evidenceType","type":"uint8","internalType":"enum ForensicChain.EvidenceType"}],"outputs":[],"stateMutability":"nonpayable"},{"type":"function","name":"submitFIREvidence","inputs":[{"name":"firId","type":"string","internalType":"string"},{"name":"evidenceId","type":"string","internalType":"string"},{"name":"cidEncrypted","type":"string","internalType":"string"},{"name":"hashEncrypted","type":"string","internalType":"string"},{"name":"hashOriginal","type":"string","internalType":"string"},{"name":"encryptionKeyHash","type":"bytes","internalType":"bytes"},{"name":"evidenceType","type":"uint8","internalType":"enum ForensicChain.EvidenceType"}],"outputs":[],"stateMutability":"nonpayable"},{"type":"function","name":"toggleSystemLock","inputs":[],"outputs":[],"stateMutability":"nonpayable"},{"type":"function","name":"updateEncryptionKey","inputs":[{"name":"caseId","type":"string","internalType":"string"},{"name":"index","type":"uint256","internalType":"uint256"},{"name":"newKeyHash","type":"bytes","internalType":"bytes"}],"outputs":[],"stateMutability":"nonpayable"},{"type":"function","name":"usedCIDHash","inputs":[{"name":"","type":"bytes32","internalType":"bytes32"}],"outputs":[{"name":"","type":"bool","internalType":"bool"}],"stateMutability":"view"},{"type":"function","name":"verifyEvidence","inputs":[{"name":"caseId","type":"string","internalType":"string"},{"name":"index","type":"uint256","internalType":"uint256"},{"name":"providedHash","type":"string","internalType":"string"}],"outputs":[{"name":"","type":"bool","internalType":"bool"}],"stateMutability":"view"},{"type":"event","name":"CaseCreated","inputs":[{"name":"caseId","type":"string","indexed":true,"internalType":"string"},{"name":"firId","type":"string","indexed":true,"internalType":"string"},{"name":"creator","type":"address","indexed":false,"internalType":"address"}],"anonymous":false},{"type":"event","name":"CaseStatusChanged","inputs":[{"name":"caseId","type":"string","indexed":true,"internalType":"string"},{"name":"statusSealed","type":"bool","indexed":false,"internalType":"bool"},{"name":"open","type":"bool","indexed":false,"internalType":"bool"}],"anonymous":false},{"type":"event","name":"EncryptionKeyUpdated","inputs":[{"name":"caseId","type":"string","indexed":true,"internalType":"string"},{"name":"index","type":"uint256","indexed":true,"internalType":"uint256"},{"name":"keyHash","type":"bytes","indexed":false,"internalType":"bytes"}],"anonymous":false},{"type":"event","name":"EvidenceAccessed","inputs":[{"name":"caseId","type":"string","indexed":true,"internalType":"string"},{"name":"index","type":"uint256","indexed":true,"internalType":"uint256"},{"name":"accessor","type":"address","indexed":false,"internalType":"address"}],"anonymous":false},{"type":"event","name":"EvidenceConfirmed","inputs":[{"name":"caseId","type":"string","indexed":true,"internalType":"string"},{"name":"index","type":"uint256","indexed":true,"internalType":"uint256"},{"name":"confirmer","type":"address","indexed":false,"internalType":"address"}],"anonymous":false},{"type":"event","name":"EvidenceSubmitted","inputs":[{"name":"caseId","type":"string","indexed":true,"internalType":"string"},{"name":"evidenceId","type":"string","indexed":false,"internalType":"string"},{"name":"cidEncrypted","type":"string","indexed":false,"internalType":"string"},{"name":"submitter","type":"address","indexed":false,"internalType":"address"}],"anonymous":false},{"type":"event","name":"FIRFiled","inputs":[{"name":"firId","type":"string","indexed":true,"internalType":"string"},{"name":"filedBy","type":"address","indexed":true,"internalType":"address"}],"anonymous":false},{"type":"event","name":"RoleAssigned","inputs":[{"name":"caseId","type":"string","indexed":true,"internalType":"string"},{"name":"user","type":"address","indexed":true,"internalType":"address"},{"name":"role","type":"uint8","indexed":false,"internalType":"enum ForensicChain.Role"}],"anonymous":false}],"bytecode":{"object":"0x6080604052348015600e575f5ffd5b505f8054336001600160a01b0319909116811782558152600160208190526040909120805460ff19169091179055614ae1806100495f395ff3fe608060405234801561000f575f5ffd5b50600436106101e6575f3560e01c806396853b8511610109578063d4e068261161009e578063f58b06721161006e578063f58b067214610549578063f6e715db1461055c578063f74328fe1461056f578063fb40c22a1461058f575f5ffd5b8063d4e06826146104ad578063d77bdf97146104cd578063df965829146104e0578063f47dbf0d14610506575f5ffd5b8063a5fd3618116100d9578063a5fd361814610449578063b1ae9e941461045c578063b934669f1461046f578063cbbfe1fc14610482575f5ffd5b806396853b85146103b75780639d8d2a49146103d75780639dc17586146103ea578063a23140d21461040c575f5ffd5b80637151cda91161017f578063832e943f1161014f578063832e943f146103545780638da5cb5b1461036757806390712d6a1461039157806395d95a60146103a4575f5ffd5b80637151cda914610308578063771cc1be1461031b57806378ac0caf1461032e57806379c7fdd314610341575f5ffd5b80634966a761116101ba5780634966a761146102895780635df512eb146102b85780636bbc463c146102e05780636fa81f8914610300575f5ffd5b8062a81646146101ea57806326d6570e1461023c5780632a8d05d8146102515780633e6a1a4f14610276575b5f5ffd5b6102276101f8366004613cf9565b81516020818401810180516005825292820194820194909420919093529091525f908152604090205460ff1681565b60405190151581526020015b60405180910390f35b61024f61024a366004613d51565b6105a4565b005b61026461025f366004613e68565b610907565b60405161023396959493929190613ecf565b61024f610284366004613e68565b610aef565b6102ab610297366004613f31565b60016020525f908152604090205460ff1681565b6040516102339190613f65565b6102cb6102c6366004613f7f565b610c0e565b60405161023399989796959493929190613fd4565b6102f36102ee366004614070565b610f1e565b6040516102339190614087565b61024f610fc4565b610227610316366004614099565b611026565b6102f3610329366004614099565b6114f5565b61024f61033c366004614104565b611778565b61024f61034f366004614175565b6119ac565b61024f610362366004613e68565b611a88565b5f54610379906001600160a01b031681565b6040516001600160a01b039091168152602001610233565b61024f61039f366004613e68565b611c18565b61024f6103b236600461419d565b611d3f565b6103ca6103c5366004613e68565b611ef5565b60405161023391906141f6565b61024f6103e5366004613f7f565b612149565b6102276103f8366004614070565b60066020525f908152604090205460ff1681565b6102ab61041a366004613cf9565b81516020818401810180516004825292820194820194909420919093529091525f908152604090205460ff1681565b610379610457366004613f7f565b612384565b61024f61046a366004613d51565b6123c9565b61024f61047d366004614323565b6127d6565b6102ab610490366004613f31565b6001600160a01b03165f9081526001602052604090205460ff1690565b6104c06104bb366004613e68565b612b51565b6040516102339190614518565b5f5461022790600160a01b900460ff1681565b6104f36104ee366004613e68565b612e52565b604051610233979695949392919061452a565b610227610514366004614592565b825160208185018101805160088252928201958201959095209190945283525f91825260408083209093528152205460ff1681565b61024f610557366004614099565b61303f565b6102ab61056a366004613e68565b613140565b61058261057d366004613f7f565b613175565b604051610233919061461e565b610597613554565b6040516102339190614715565b5f54600160a01b900460ff16156105d65760405162461bcd60e51b81526004016105cd90614778565b60405180910390fd5b865f6004826040516105e891906147c6565b9081526040805160209281900383019020335f908152925290205460ff16600481111561061757610617613f51565b036106345760405162461bcd60e51b81526004016105cd906147d1565b8760038160405161064591906147c6565b9081526040519081900360200190206003015460ff600160a81b90910416801561069a575060038160405161067a91906147c6565b9081526040519081900360200190206003015460ff600160a01b90910416155b6106e65760405162461bcd60e51b815260206004820152601d60248201527f43617365206973206e6f74206f70656e206f72206973207365616c656400000060448201526064016105cd565b6002335f9081526001602052604090205460ff16600481111561070b5761070b613f51565b148061073957506003335f9081526001602052604090205460ff16600481111561073757610737613f51565b145b6107915760405162461bcd60e51b8152602060048201526024808201527f556e617574686f72697a656420726f6c6520746f207375626d69742065766964604482015263656e636560e01b60648201526084016105cd565b5f87876040516020016107a59291906147ff565b60408051601f1981840301815291815281516020928301205f818152600690935291205490915060ff161561081c5760405162461bcd60e51b815260206004820152601b60248201527f4475706c69636174652065766964656e6365206465746563746564000000000060448201526064016105cd565b5f6040518061014001604052808b81526020018a815260200189815260200188815260200187815260200186600381111561085957610859613f51565b8152336020808301919091525f6040808401829052426060850152805191825291810190915260809091015290506108918b826138f2565b5f8281526006602052604090819020805460ff19166001179055516108b7908c906147c6565b60405180910390207fe5b88cd90e0d43c91426eb5e40ad85f7f8eb350987ef1093b5335b13b1680bc08b8b336040516108f293929190614813565b60405180910390a25050505050505050505050565b805160208183018101805160028252928201919093012091528054819061092d90614850565b80601f016020809104026020016040519081016040528092919081815260200182805461095990614850565b80156109a45780601f1061097b576101008083540402835291602001916109a4565b820191905f5260205f20905b81548152906001019060200180831161098757829003601f168201915b505050600184015460028501805494956001600160a01b039092169491935091506109ce90614850565b80601f01602080910402602001604051908101604052809291908181526020018280546109fa90614850565b8015610a455780601f10610a1c57610100808354040283529160200191610a45565b820191905f5260205f20905b815481529060010190602001808311610a2857829003601f168201915b50505050600383015460048401546005850180549495929460ff909216935090610a6e90614850565b80601f0160208091040260200160405190810160405280929190818152602001828054610a9a90614850565b8015610ae55780601f10610abc57610100808354040283529160200191610ae5565b820191905f5260205f20905b815481529060010190602001808311610ac857829003601f168201915b5050505050905086565b6001335f9081526001602052604090205460ff166004811115610b1457610b14613f51565b14610b315760405162461bcd60e51b81526004016105cd90614882565b5f600382604051610b4291906147c6565b908152604051908190036020019020600381015490915060ff600160a01b90910416610ba55760405162461bcd60e51b815260206004820152601260248201527110d85cd9481a5cc81b9bdd081cd9585b195960721b60448201526064016105cd565b60038101805461ffff60a01b1916600160a81b179055604051610bc99083906147c6565b604080519182900382205f835260016020840152917fccd3406b26c958e283688c2b3e9613f62a98f3e3765f369ce853e10fc00b379e91015b60405180910390a25050565b81516020818401810180516009825292820194820194909420919093529091525f9081526040902080548190610c4390614850565b80601f0160208091040260200160405190810160405280929190818152602001828054610c6f90614850565b8015610cba5780601f10610c9157610100808354040283529160200191610cba565b820191905f5260205f20905b815481529060010190602001808311610c9d57829003601f168201915b505050505090806001018054610ccf90614850565b80601f0160208091040260200160405190810160405280929190818152602001828054610cfb90614850565b8015610d465780601f10610d1d57610100808354040283529160200191610d46565b820191905f5260205f20905b815481529060010190602001808311610d2957829003601f168201915b505050505090806002018054610d5b90614850565b80601f0160208091040260200160405190810160405280929190818152602001828054610d8790614850565b8015610dd25780601f10610da957610100808354040283529160200191610dd2565b820191905f5260205f20905b815481529060010190602001808311610db557829003601f168201915b505050505090806003018054610de790614850565b80601f0160208091040260200160405190810160405280929190818152602001828054610e1390614850565b8015610e5e5780601f10610e3557610100808354040283529160200191610e5e565b820191905f5260205f20905b815481529060010190602001808311610e4157829003601f168201915b505050505090806004018054610e7390614850565b80601f0160208091040260200160405190810160405280929190818152602001828054610e9f90614850565b8015610eea5780601f10610ec157610100808354040283529160200191610eea565b820191905f5260205f20905b815481529060010190602001808311610ecd57829003601f168201915b5050506005840154600690940154929360ff808216946001600160a01b036101008404169450600160a81b90920416915089565b600a8181548110610f2d575f80fd5b905f5260205f20015f915090508054610f4590614850565b80601f0160208091040260200160405190810160405280929190818152602001828054610f7190614850565b8015610fbc5780601f10610f9357610100808354040283529160200191610fbc565b820191905f5260205f20905b815481529060010190602001808311610f9f57829003601f168201915b505050505081565b6001335f9081526001602052604090205460ff166004811115610fe957610fe9613f51565b146110065760405162461bcd60e51b81526004016105cd90614882565b5f805460ff60a01b198116600160a01b9182900460ff1615909102179055565b5f838160048260405161103991906147c6565b9081526040805160209281900383019020335f908152925290205460ff16600481111561106857611068613f51565b036110855760405162461bcd60e51b81526004016105cd906147d1565b5f60098660405161109691906147c6565b9081526040805191829003602090810183205f898152915281902061014083019091528054829082906110c890614850565b80601f01602080910402602001604051908101604052809291908181526020018280546110f490614850565b801561113f5780601f106111165761010080835404028352916020019161113f565b820191905f5260205f20905b81548152906001019060200180831161112257829003601f168201915b5050505050815260200160018201805461115890614850565b80601f016020809104026020016040519081016040528092919081815260200182805461118490614850565b80156111cf5780601f106111a6576101008083540402835291602001916111cf565b820191905f5260205f20905b8154815290600101906020018083116111b257829003601f168201915b505050505081526020016002820180546111e890614850565b80601f016020809104026020016040519081016040528092919081815260200182805461121490614850565b801561125f5780601f106112365761010080835404028352916020019161125f565b820191905f5260205f20905b81548152906001019060200180831161124257829003601f168201915b5050505050815260200160038201805461127890614850565b80601f01602080910402602001604051908101604052809291908181526020018280546112a490614850565b80156112ef5780601f106112c6576101008083540402835291602001916112ef565b820191905f5260205f20905b8154815290600101906020018083116112d257829003601f168201915b5050505050815260200160048201805461130890614850565b80601f016020809104026020016040519081016040528092919081815260200182805461133490614850565b801561137f5780601f106113565761010080835404028352916020019161137f565b820191905f5260205f20905b81548152906001019060200180831161136257829003601f168201915b5050509183525050600582015460209091019060ff1660038111156113a6576113a6613f51565b60038111156113b7576113b7613f51565b8152600582015461010081046001600160a01b0316602080840191909152600160a81b90910460ff16151560408084019190915260068401546060840152600784018054825181850281018501909352808352608090940193919290919083018282801561144c57602002820191905f5260205f20905b81546001600160a01b0316815260019091019060200180831161142e575b505050505081525050905060038660405161146791906147c6565b90815260200160405180910390206005015485106114975760405162461bcd60e51b81526004016105cd906148c4565b80606001516040516020016114ac91906147c6565b60405160208183030381529060405280519060200120846040516020016114d391906147c6565b6040516020818303038152906040528051906020012014925050509392505050565b6060835f60048260405161150991906147c6565b9081526040805160209281900383019020335f908152925290205460ff16600481111561153857611538613f51565b036115555760405162461bcd60e51b81526004016105cd906147d1565b5f60098660405161156691906147c6565b9081526040805191829003602090810183205f898152915220915060039061158f9088906147c6565b90815260200160405180910390206005015485106115bf5760405162461bcd60e51b81526004016105cd906148c4565b806004016040516115d09190614962565b604051809103902084805190602001201461162d5760405162461bcd60e51b815260206004820152601b60248201527f496e76616c696420656e6372797074696f6e206b65792068617368000000000060448201526064016105cd565b600160088760405161163f91906147c6565b90815260408051602092819003830181205f8a815290845282812033808352908552928120805460ff1916951515959095179094556007850180546001810182559085529290932090910180546001600160a01b031916909117905585906116a89088906147c6565b604051908190038120338252907fe3e06dd8850ec972041572f81676250e26ad91ef62689998a3ff7654599f0ca59060200160405180910390a38060010180546116f190614850565b80601f016020809104026020016040519081016040528092919081815260200182805461171d90614850565b80156117685780601f1061173f57610100808354040283529160200191611768565b820191905f5260205f20905b81548152906001019060200180831161174b57829003601f168201915b5050505050925050509392505050565b5f54600160a01b900460ff16156117a15760405162461bcd60e51b81526004016105cd90614778565b600280335f9081526001602052604090205460ff1660048111156117c7576117c7613f51565b146118085760405162461bcd60e51b8152602060048201526011602482015270556e617574686f72697a656420726f6c6560781b60448201526064016105cd565b5f6001600160a01b031660028460405161182291906147c6565b908152604051908190036020019020600101546001600160a01b0316146118805760405162461bcd60e51b815260206004820152601260248201527146495220616c72656164792065786973747360701b60448201526064016105cd565b6040518060c00160405280848152602001336001600160a01b031681526020018381526020014281526020015f1515815260200160405180602001604052805f8152508152506002846040516118d691906147c6565b908152604051908190036020019020815181906118f390826149b9565b5060208201516001820180546001600160a01b0319166001600160a01b039092169190911790556040820151600282019061192e90826149b9565b5060608201516003820155608082015160048201805460ff191691151591909117905560a0820151600582019061196590826149b9565b50506040513391506119789085906147c6565b604051908190038120907fcd281a32f52a3415be202f822577a194e72cecd7c3fc0c3f1057ff667f3d916a905f90a3505050565b6001335f9081526001602052604090205460ff1660048111156119d1576119d1613f51565b146119ee5760405162461bcd60e51b81526004016105cd90614882565b5f816004811115611a0157611a01613f51565b03611a485760405162461bcd60e51b815260206004820152601760248201527643616e6e6f742061737369676e204e6f6e6520726f6c6560481b60448201526064016105cd565b6001600160a01b0382165f9081526001602081905260409091208054839260ff1990911690836004811115611a7f57611a7f613f51565b02179055505050565b6001335f9081526001602052604090205460ff166004811115611aad57611aad613f51565b14611aca5760405162461bcd60e51b81526004016105cd90614882565b5f600382604051611adb91906147c6565b90815260405190819003602001902060038101805460ff60a81b1916905590505f5b600783604051611b0d91906147c6565b90815260405190819003602001902054811015611bbd575f600484604051611b3591906147c6565b90815260200160405180910390205f600786604051611b5491906147c6565b90815260200160405180910390208481548110611b7357611b73614a73565b5f9182526020808320909101546001600160a01b031683528201929092526040019020805460ff19166001836004811115611bb057611bb0613f51565b0217905550600101611afd565b5081604051611bcc91906147c6565b604080519182900382206003840154600160a01b900460ff16151583525f6020840152917fccd3406b26c958e283688c2b3e9613f62a98f3e3765f369ce853e10fc00b379e9101610c02565b6001335f9081526001602052604090205460ff166004811115611c3d57611c3d613f51565b14611c5a5760405162461bcd60e51b81526004016105cd90614882565b5f600382604051611c6b91906147c6565b908152604051908190036020019020600381015490915060ff600160a81b90910416611ccf5760405162461bcd60e51b815260206004820152601360248201527210d85cd948185b1c9958591e4818db1bdcd959606a1b60448201526064016105cd565b60038101805460ff60a01b1916600160a01b179055604051611cf29083906147c6565b60408051918290038220600384015460018452600160a81b900460ff1615156020840152917fccd3406b26c958e283688c2b3e9613f62a98f3e3765f369ce853e10fc00b379e9101610c02565b5f54600160a01b900460ff1615611d685760405162461bcd60e51b81526004016105cd90614778565b6001335f9081526001602052604090205460ff166004811115611d8d57611d8d613f51565b14611daa5760405162461bcd60e51b81526004016105cd90614882565b5f816004811115611dbd57611dbd613f51565b03611e045760405162461bcd60e51b815260206004820152601760248201527643616e6e6f742061737369676e204e6f6e6520726f6c6560481b60448201526064016105cd565b80600484604051611e1591906147c6565b90815260408051602092819003830190206001600160a01b0386165f90815292529020805460ff19166001836004811115611e5257611e52613f51565b0217905550600783604051611e6791906147c6565b908152604051908190036020908101822080546001810182555f9182529190200180546001600160a01b0385166001600160a01b0319909116811790915590611eb19085906147c6565b60405180910390207f840001fdf1f35980eb6dd48ae96029ae5fc90f3baacb74fc21f6da4d56437dc483604051611ee89190613f65565b60405180910390a3505050565b611f366040518060c00160405280606081526020015f6001600160a01b03168152602001606081526020015f81526020015f15158152602001606081525090565b600282604051611f4691906147c6565b90815260200160405180910390206040518060c00160405290815f82018054611f6e90614850565b80601f0160208091040260200160405190810160405280929190818152602001828054611f9a90614850565b8015611fe55780601f10611fbc57610100808354040283529160200191611fe5565b820191905f5260205f20905b815481529060010190602001808311611fc857829003601f168201915b505050918352505060018201546001600160a01b0316602082015260028201805460409092019161201590614850565b80601f016020809104026020016040519081016040528092919081815260200182805461204190614850565b801561208c5780601f106120635761010080835404028352916020019161208c565b820191905f5260205f20905b81548152906001019060200180831161206f57829003601f168201915b505050918352505060038201546020820152600482015460ff16151560408201526005820180546060909201916120c290614850565b80601f01602080910402602001604051908101604052809291908181526020018280546120ee90614850565b80156121395780601f1061211057610100808354040283529160200191612139565b820191905f5260205f20905b81548152906001019060200180831161211c57829003601f168201915b5050505050815250509050919050565b5f54600160a01b900460ff16156121725760405162461bcd60e51b81526004016105cd90614778565b815f60048260405161218491906147c6565b9081526040805160209281900383019020335f908152925290205460ff1660048111156121b3576121b3613f51565b036121d05760405162461bcd60e51b81526004016105cd906147d1565b5f6009846040516121e191906147c6565b9081526040805191829003602090810183205f878152915220915060039061220a9086906147c6565b908152602001604051809103902060050154831061223a5760405162461bcd60e51b81526004016105cd906148c4565b6005810154600160a81b900460ff16156122965760405162461bcd60e51b815260206004820152601a60248201527f45766964656e636520616c726561647920636f6e6669726d656400000000000060448201526064016105cd565b6005810154336101009091046001600160a01b0316036122f85760405162461bcd60e51b815260206004820152601c60248201527f43616e6e6f742073656c662d636f6e6669726d2065766964656e63650000000060448201526064016105cd565b60058101805460ff60a81b1916600160a81b1790556007810180546001810182555f91825260209091200180546001600160a01b0319163317905560405183906123439086906147c6565b604051908190038120338252907f734e7f8be793338a34800160b116009c5270ae949d4b6a7a71b800327096a2e8906020015b60405180910390a350505050565b815160208184018101805160078252928201918501919091209190528054829081106123ae575f80fd5b5f918252602090912001546001600160a01b03169150829050565b5f54600160a01b900460ff16156123f25760405162461bcd60e51b81526004016105cd90614778565b6002335f9081526001602052604090205460ff16600481111561241757612417613f51565b148061244557506003335f9081526001602052604090205460ff16600481111561244357612443613f51565b145b6124805760405162461bcd60e51b815260206004820152600c60248201526b155b985d5d1a1bdc9a5e995960a21b60448201526064016105cd565b5f6001600160a01b031660028860405161249a91906147c6565b908152604051908190036020019020600101546001600160a01b0316036124f35760405162461bcd60e51b815260206004820152600d60248201526c119254881b9bdd08199bdd5b99609a1b60448201526064016105cd565b60028760405161250391906147c6565b9081526040519081900360200190206004015460ff16156125665760405162461bcd60e51b815260206004820152601c60248201527f46495220616c72656164792070726f6d6f74656420746f20636173650000000060448201526064016105cd565b5f858560405160200161257a9291906147ff565b60408051601f1981840301815291815281516020928301205f818152600690935291205490915060ff16156125f15760405162461bcd60e51b815260206004820152601b60248201527f4475706c69636174652065766964656e6365206465746563746564000000000060448201526064016105cd565b5f60028960405161260291906147c6565b9081526020016040518091039020600501805461261e90614850565b80601f016020809104026020016040519081016040528092919081815260200182805461264a90614850565b80156126955780601f1061266c57610100808354040283529160200191612695565b820191905f5260205f20905b81548152906001019060200180831161267857829003601f168201915b5050505050905080515f036126ec5760405162461bcd60e51b815260206004820152601860248201527f4e6f206173736f636961746564206361736520666f756e64000000000000000060448201526064016105cd565b5f6040518061014001604052808a815260200189815260200188815260200187815260200186815260200185600381111561272957612729613f51565b8152336020808301919091525f60408084018290524260608501528051918252918101909152608090910152905061276182826138f2565b5f8381526006602052604090819020805460ff19166001179055516127879083906147c6565b60405180910390207fe5b88cd90e0d43c91426eb5e40ad85f7f8eb350987ef1093b5335b13b1680bc08a8a336040516127c293929190614813565b60405180910390a250505050505050505050565b5f54600160a01b900460ff16156127ff5760405162461bcd60e51b81526004016105cd90614778565b600280335f9081526001602052604090205460ff16600481111561282557612825613f51565b146128665760405162461bcd60e51b8152602060048201526011602482015270556e617574686f72697a656420726f6c6560781b60448201526064016105cd565b5f6001600160a01b031660038760405161288091906147c6565b908152604051908190036020019020600301546001600160a01b0316146128df5760405162461bcd60e51b81526020600482015260136024820152724361736520616c72656164792065786973747360681b60448201526064016105cd565b5f6001600160a01b03166002866040516128f991906147c6565b908152604051908190036020019020600101546001600160a01b0316036129525760405162461bcd60e51b815260206004820152600d60248201526c119254881b9bdd08199bdd5b99609a1b60448201526064016105cd565b60028560405161296291906147c6565b9081526040519081900360200190206004015460ff16156129bc5760405162461bcd60e51b815260206004820152601460248201527311925488185b1c9958591e481c1c9bdb5bdd195960621b60448201526064016105cd565b5f6003876040516129cd91906147c6565b9081526040519081900360200190209050806129e988826149b9565b50600181016129f886826149b9565b5060028101612a0785826149b9565b5060038101805461ffff60a01b1933166001600160b01b031990911617600160a81b1790558251612a419060048301906020860190613a53565b505f6005820155604051600190600290612a5c9089906147c6565b908152604051908190036020018120600401805492151560ff19909316929092179091558790600290612a909089906147c6565b90815260200160405180910390206005019081612aad91906149b9565b50600a80546001810182555f919091527fc65a7bb8d6351c1cf70c95a316cc6a92839c986682d98bc35f958f4883f9d2a801612ae988826149b9565b5085604051612af891906147c6565b604051809103902087604051612b0e91906147c6565b604051908190038120338252907f4e34de79d280cd9497dda47ec7e91d7d4a0eed0588479d8ec91fd4cf3dbb1f529060200160405180910390a350505050505050565b612b59613aa7565b600382604051612b6991906147c6565b9081526020016040518091039020604051806101000160405290815f82018054612b9290614850565b80601f0160208091040260200160405190810160405280929190818152602001828054612bbe90614850565b8015612c095780601f10612be057610100808354040283529160200191612c09565b820191905f5260205f20905b815481529060010190602001808311612bec57829003601f168201915b50505050508152602001600182018054612c2290614850565b80601f0160208091040260200160405190810160405280929190818152602001828054612c4e90614850565b8015612c995780601f10612c7057610100808354040283529160200191612c99565b820191905f5260205f20905b815481529060010190602001808311612c7c57829003601f168201915b50505050508152602001600282018054612cb290614850565b80601f0160208091040260200160405190810160405280929190818152602001828054612cde90614850565b8015612d295780601f10612d0057610100808354040283529160200191612d29565b820191905f5260205f20905b815481529060010190602001808311612d0c57829003601f168201915b505050918352505060038201546001600160a01b03811660208084019190915260ff600160a01b830481161515604080860191909152600160a81b909304161515606084015260048401805483518184028101840190945280845260809094019390915f9084015b82821015612e39578382905f5260205f20018054612dae90614850565b80601f0160208091040260200160405190810160405280929190818152602001828054612dda90614850565b8015612e255780601f10612dfc57610100808354040283529160200191612e25565b820191905f5260205f20905b815481529060010190602001808311612e0857829003601f168201915b505050505081526020019060010190612d91565b5050505081526020016005820154815250509050919050565b8051602081830181018051600382529282019190930120915280548190612e7890614850565b80601f0160208091040260200160405190810160405280929190818152602001828054612ea490614850565b8015612eef5780601f10612ec657610100808354040283529160200191612eef565b820191905f5260205f20905b815481529060010190602001808311612ed257829003601f168201915b505050505090806001018054612f0490614850565b80601f0160208091040260200160405190810160405280929190818152602001828054612f3090614850565b8015612f7b5780601f10612f5257610100808354040283529160200191612f7b565b820191905f5260205f20905b815481529060010190602001808311612f5e57829003601f168201915b505050505090806002018054612f9090614850565b80601f0160208091040260200160405190810160405280929190818152602001828054612fbc90614850565b80156130075780601f10612fde57610100808354040283529160200191613007565b820191905f5260205f20905b815481529060010190602001808311612fea57829003601f168201915b505050600384015460059094015492936001600160a01b0381169360ff600160a01b830481169450600160a81b909204909116915087565b6001335f9081526001602052604090205460ff16600481111561306457613064613f51565b146130815760405162461bcd60e51b81526004016105cd90614882565b5f60098460405161309291906147c6565b9081526040805191829003602090810183205f87815291522091506003906130bb9086906147c6565b90815260200160405180910390206005015483106130eb5760405162461bcd60e51b81526004016105cd906148c4565b600481016130f983826149b9565b50828460405161310991906147c6565b60405180910390207f79c218b424451eed48c6fef5a1c1080205563dbb38a130935b0ea387256fb6f7846040516123769190614087565b5f60048260405161315191906147c6565b9081526040805160209281900383019020335f908152925290205460ff1692915050565b61317d613af5565b60098360405161318d91906147c6565b9081526040805191829003602090810183205f868152915281902061014083019091528054829082906131bf90614850565b80601f01602080910402602001604051908101604052809291908181526020018280546131eb90614850565b80156132365780601f1061320d57610100808354040283529160200191613236565b820191905f5260205f20905b81548152906001019060200180831161321957829003601f168201915b5050505050815260200160018201805461324f90614850565b80601f016020809104026020016040519081016040528092919081815260200182805461327b90614850565b80156132c65780601f1061329d576101008083540402835291602001916132c6565b820191905f5260205f20905b8154815290600101906020018083116132a957829003601f168201915b505050505081526020016002820180546132df90614850565b80601f016020809104026020016040519081016040528092919081815260200182805461330b90614850565b80156133565780601f1061332d57610100808354040283529160200191613356565b820191905f5260205f20905b81548152906001019060200180831161333957829003601f168201915b5050505050815260200160038201805461336f90614850565b80601f016020809104026020016040519081016040528092919081815260200182805461339b90614850565b80156133e65780601f106133bd576101008083540402835291602001916133e6565b820191905f5260205f20905b8154815290600101906020018083116133c957829003601f168201915b505050505081526020016004820180546133ff90614850565b80601f016020809104026020016040519081016040528092919081815260200182805461342b90614850565b80156134765780601f1061344d57610100808354040283529160200191613476565b820191905f5260205f20905b81548152906001019060200180831161345957829003601f168201915b5050509183525050600582015460209091019060ff16600381111561349d5761349d613f51565b60038111156134ae576134ae613f51565b8152600582015461010081046001600160a01b0316602080840191909152600160a81b90910460ff16151560408084019190915260068401546060840152600784018054825181850281018501909352808352608090940193919290919083018282801561354357602002820191905f5260205f20905b81546001600160a01b03168152600190910190602001808311613525575b505050505081525050905092915050565b600a546060905f906001600160401b0381111561357357613573613c29565b6040519080825280602002602001820160405280156135ac57816020015b613599613aa7565b8152602001906001900390816135915790505b5090505f5b600a548110156138ec576003600a82815481106135d0576135d0614a73565b905f5260205f20016040516135e59190614962565b9081526020016040518091039020604051806101000160405290815f8201805461360e90614850565b80601f016020809104026020016040519081016040528092919081815260200182805461363a90614850565b80156136855780601f1061365c57610100808354040283529160200191613685565b820191905f5260205f20905b81548152906001019060200180831161366857829003601f168201915b5050505050815260200160018201805461369e90614850565b80601f01602080910402602001604051908101604052809291908181526020018280546136ca90614850565b80156137155780601f106136ec57610100808354040283529160200191613715565b820191905f5260205f20905b8154815290600101906020018083116136f857829003601f168201915b5050505050815260200160028201805461372e90614850565b80601f016020809104026020016040519081016040528092919081815260200182805461375a90614850565b80156137a55780601f1061377c576101008083540402835291602001916137a5565b820191905f5260205f20905b81548152906001019060200180831161378857829003601f168201915b505050918352505060038201546001600160a01b03811660208084019190915260ff600160a01b830481161515604080860191909152600160a81b909304161515606084015260048401805483518184028101840190945280845260809094019390915f9084015b828210156138b5578382905f5260205f2001805461382a90614850565b80601f016020809104026020016040519081016040528092919081815260200182805461385690614850565b80156138a15780601f10613878576101008083540402835291602001916138a1565b820191905f5260205f20905b81548152906001019060200180831161388457829003601f168201915b50505050508152602001906001019061380d565b5050505081526020016005820154815250508282815181106138d9576138d9614a73565b60209081029190910101526001016135b1565b50919050565b5f60038360405161390391906147c6565b908152602001604051809103902090508160098460405161392491906147c6565b908152604080516020928190038301902060058501545f908152925290208151819061395090826149b9565b506020820151600182019061396590826149b9565b506040820151600282019061397a90826149b9565b506060820151600382019061398f90826149b9565b50608082015160048201906139a490826149b9565b5060a082015160058201805460ff191660018360038111156139c8576139c8613f51565b021790555060c082015160058201805460e0850151610100600160b01b03199091166101006001600160a01b03909416840260ff60a81b191617600160a81b9115159190910217905582015160068201556101208201518051613a35916007840191602090910190613b60565b505050600581018054905f613a4983614a87565b9190505550505050565b828054828255905f5260205f20908101928215613a97579160200282015b82811115613a975782518290613a8790826149b9565b5091602001919060010190613a71565b50613aa3929150613bbf565b5090565b6040518061010001604052806060815260200160608152602001606081526020015f6001600160a01b031681526020015f151581526020015f15158152602001606081526020015f81525090565b60405180610140016040528060608152602001606081526020016060815260200160608152602001606081526020015f6003811115613b3657613b36613f51565b81526020015f6001600160a01b031681526020015f151581526020015f8152602001606081525090565b828054828255905f5260205f20908101928215613bb3579160200282015b82811115613bb357825182546001600160a01b0319166001600160a01b03909116178255602090920191600190910190613b7e565b50613aa3929150613bdb565b80821115613aa3575f613bd28282613bef565b50600101613bbf565b5b80821115613aa3575f8155600101613bdc565b508054613bfb90614850565b5f825580601f10613c0a575050565b601f0160209004905f5260205f2090810190613c269190613bdb565b50565b634e487b7160e01b5f52604160045260245ffd5b604051601f8201601f191681016001600160401b0381118282101715613c6557613c65613c29565b604052919050565b5f82601f830112613c7c575f5ffd5b8135602083015f5f6001600160401b03841115613c9b57613c9b613c29565b50601f8301601f1916602001613cb081613c3d565b915050828152858383011115613cc4575f5ffd5b828260208301375f92810160200192909252509392505050565b80356001600160a01b0381168114613cf4575f5ffd5b919050565b5f5f60408385031215613d0a575f5ffd5b82356001600160401b03811115613d1f575f5ffd5b613d2b85828601613c6d565b925050613d3a60208401613cde565b90509250929050565b803560048110613cf4575f5ffd5b5f5f5f5f5f5f5f60e0888a031215613d67575f5ffd5b87356001600160401b03811115613d7c575f5ffd5b613d888a828b01613c6d565b97505060208801356001600160401b03811115613da3575f5ffd5b613daf8a828b01613c6d565b96505060408801356001600160401b03811115613dca575f5ffd5b613dd68a828b01613c6d565b95505060608801356001600160401b03811115613df1575f5ffd5b613dfd8a828b01613c6d565b94505060808801356001600160401b03811115613e18575f5ffd5b613e248a828b01613c6d565b93505060a08801356001600160401b03811115613e3f575f5ffd5b613e4b8a828b01613c6d565b925050613e5a60c08901613d43565b905092959891949750929550565b5f60208284031215613e78575f5ffd5b81356001600160401b03811115613e8d575f5ffd5b613e9984828501613c6d565b949350505050565b5f81518084528060208401602086015e5f602082860101526020601f19601f83011685010191505092915050565b60c081525f613ee160c0830189613ea1565b6001600160a01b03881660208401528281036040840152613f028188613ea1565b9050856060840152841515608084015282810360a0840152613f248185613ea1565b9998505050505050505050565b5f60208284031215613f41575f5ffd5b613f4a82613cde565b9392505050565b634e487b7160e01b5f52602160045260245ffd5b6020810160058310613f7957613f79613f51565b91905290565b5f5f60408385031215613f90575f5ffd5b82356001600160401b03811115613fa5575f5ffd5b613fb185828601613c6d565b95602094909401359450505050565b60048110613fd057613fd0613f51565b9052565b61012081525f613fe861012083018c613ea1565b8281036020840152613ffa818c613ea1565b9050828103604084015261400e818b613ea1565b90508281036060840152614022818a613ea1565b905082810360808401526140368189613ea1565b91505061404660a0830187613fc0565b6001600160a01b039490941660c082015291151560e0830152610100909101529695505050505050565b5f60208284031215614080575f5ffd5b5035919050565b602081525f613f4a6020830184613ea1565b5f5f5f606084860312156140ab575f5ffd5b83356001600160401b038111156140c0575f5ffd5b6140cc86828701613c6d565b9350506020840135915060408401356001600160401b038111156140ee575f5ffd5b6140fa86828701613c6d565b9150509250925092565b5f5f60408385031215614115575f5ffd5b82356001600160401b0381111561412a575f5ffd5b61413685828601613c6d565b92505060208301356001600160401b03811115614151575f5ffd5b61415d85828601613c6d565b9150509250929050565b803560058110613cf4575f5ffd5b5f5f60408385031215614186575f5ffd5b61418f83613cde565b9150613d3a60208401614167565b5f5f5f606084860312156141af575f5ffd5b83356001600160401b038111156141c4575f5ffd5b6141d086828701613c6d565b9350506141df60208501613cde565b91506141ed60408501614167565b90509250925092565b602081525f825160c0602084015261421160e0840182613ea1565b60208501516001600160a01b0316604085810191909152850151848203601f190160608601529091506142448282613ea1565b915050606084015160808401526080840151151560a084015260a0840151601f198483030160c08501526142788282613ea1565b95945050505050565b5f82601f830112614290575f5ffd5b81356001600160401b038111156142a9576142a9613c29565b8060051b6142b960208201613c3d565b918252602081850181019290810190868411156142d4575f5ffd5b6020860192505b838310156143195782356001600160401b038111156142f8575f5ffd5b614307886020838a0101613c6d565b835250602092830192909101906142db565b9695505050505050565b5f5f5f5f5f60a08688031215614337575f5ffd5b85356001600160401b0381111561434c575f5ffd5b61435888828901613c6d565b95505060208601356001600160401b03811115614373575f5ffd5b61437f88828901613c6d565b94505060408601356001600160401b0381111561439a575f5ffd5b6143a688828901613c6d565b93505060608601356001600160401b038111156143c1575f5ffd5b6143cd88828901613c6d565b92505060808601356001600160401b038111156143e8575f5ffd5b6143f488828901614281565b9150509295509295909350565b5f82825180855260208501945060208160051b830101602085015f5b8381101561444f57601f19858403018852614439838351613ea1565b602098890198909350919091019060010161441d565b50909695505050505050565b5f81516101008452614471610100850182613ea1565b90506020830151848203602086015261448a8282613ea1565b915050604083015184820360408601526144a48282613ea1565b91505060608301516144c160608601826001600160a01b03169052565b5060808301516144d5608086018215159052565b5060a08301516144e960a086018215159052565b5060c083015184820360c08601526145018282614401565b91505060e083015160e08501528091505092915050565b602081525f613f4a602083018461445b565b60e081525f61453c60e083018a613ea1565b828103602084015261454e818a613ea1565b905082810360408401526145628189613ea1565b6001600160a01b039790971660608401525050921515608084015290151560a083015260c0909101529392505050565b5f5f5f606084860312156145a4575f5ffd5b83356001600160401b038111156145b9575f5ffd5b6145c586828701613c6d565b935050602084013591506141ed60408501613cde565b5f8151808452602084019350602083015f5b828110156146145781516001600160a01b03168652602095860195909101906001016145ed565b5093949350505050565b602081525f8251610140602084015261463b610160840182613ea1565b90506020840151601f198483030160408501526146588282613ea1565b9150506040840151601f198483030160608501526146768282613ea1565b9150506060840151601f198483030160808501526146948282613ea1565b9150506080840151601f198483030160a08501526146b28282613ea1565b91505060a08401516146c760c0850182613fc0565b5060c08401516001600160a01b03811660e08501525060e084015180151561010085015250610100840151610120840152610120840151601f198483030161014085015261427882826145db565b5f602082016020835280845180835260408501915060408160051b8601019250602086015f5b8281101561476c57603f1987860301845261475785835161445b565b9450602093840193919091019060010161473b565b50929695505050505050565b6020808252601b908201527f53797374656d20697320696e20656d657267656e6379206c6f636b0000000000604082015260600190565b5f81518060208401855e5f93019283525090919050565b5f613f4a82846147af565b6020808252601490820152734e6f742061737369676e656420746f206361736560601b604082015260600190565b5f613e9961480d83866147af565b846147af565b606081525f6148256060830186613ea1565b82810360208401526148378186613ea1565b91505060018060a01b0383166040830152949350505050565b600181811c9082168061486457607f821691505b6020821081036138ec57634e487b7160e01b5f52602260045260245ffd5b60208082526022908201527f4f6e6c7920436f7572742063616e20706572666f726d2074686973206163746960408201526137b760f11b606082015260800190565b602080825260169082015275092dcecc2d8d2c840caecd2c8cadcc6ca40d2dcc8caf60531b604082015260600190565b5f815461490081614850565b600182168015614917576001811461492c57614959565b60ff1983168652811515820286019350614959565b845f5260205f205f5b8381101561495157815488820152600190910190602001614935565b505081860193505b50505092915050565b5f613f4a82846148f4565b601f8211156149b457805f5260205f20601f840160051c810160208510156149925750805b601f840160051c820191505b818110156149b1575f815560010161499e565b50505b505050565b81516001600160401b038111156149d2576149d2613c29565b6149e6816149e08454614850565b8461496d565b6020601f821160018114614a18575f8315614a015750848201515b5f19600385901b1c1916600184901b1784556149b1565b5f84815260208120601f198516915b82811015614a475787850151825560209485019460019092019101614a27565b5084821015614a6457868401515f19600387901b60f8161c191681555b50505050600190811b01905550565b634e487b7160e01b5f52603260045260245ffd5b5f60018201614aa457634e487b7160e01b5f52601160045260245ffd5b506001019056fea2646970667358221220e4ffecedf0d56db4ac508c485c65e09534a4767bea3efda5c77fde1091c6b1a664736f6c634300081d0033","linkReferences":{}},"methodIdentifiers":{"accessEvidence(string,uint256,bytes)":"771cc1be","assignCaseRole(string,address,uint8)":"95d95a60","caseAuditTrail(string,uint256)":"a5fd3618","caseEvidenceMapping(string,uint256)":"5df512eb","caseIds(uint256)":"6bbc463c","caseRoles(string,address)":"a23140d2","cases(string)":"df965829","closeCase(string)":"832e943f","confirmCaseEvidence(string,uint256)":"9d8d2a49","createCaseFromFIR(string,string,string,string,string[])":"b934669f","evidenceAccessed(string,uint256,address)":"f47dbf0d","evidenceConfirmed(string,address)":"00a81646","fileFIR(string,string)":"78ac0caf","firs(string)":"2a8d05d8","getAllCases()":"fb40c22a","getCase(string)":"d4e06826","getEvidence(string,uint256)":"f74328fe","getFIR(string)":"96853b85","getGlobalRole(address)":"cbbfe1fc","getMyRoleInCase(string)":"f6e715db","globalRoles(address)":"4966a761","isSystemLocked()":"d77bdf97","owner()":"8da5cb5b","reopenCase(string)":"3e6a1a4f","sealCase(string)":"90712d6a","setGlobalRole(address,uint8)":"79c7fdd3","submitCaseEvidence(string,string,string,string,string,bytes,uint8)":"26d6570e","submitFIREvidence(string,string,string,string,string,bytes,uint8)":"b1ae9e94","toggleSystemLock()":"6fa81f89","updateEncryptionKey(string,uint256,bytes)":"f58b0672","usedCIDHash(bytes32)":"9dc17586","verifyEvidence(string,uint256,string)":"7151cda9"},"id":16}